{
  "contractName": "Farmshop",
  "abi": [
    {
      "anonymous": false,
      "inputs": [
        {
          "indexed": false,
          "internalType": "uint256",
          "name": "id",
          "type": "uint256"
        },
        {
          "indexed": false,
          "internalType": "string",
          "name": "name",
          "type": "string"
        },
        {
          "indexed": false,
          "internalType": "uint256",
          "name": "price",
          "type": "uint256"
        },
        {
          "indexed": false,
          "internalType": "uint256",
          "name": "quantity",
          "type": "uint256"
        },
        {
          "indexed": false,
          "internalType": "address payable",
          "name": "seller",
          "type": "address"
        }
      ],
      "name": "ProduceAdded",
      "type": "event"
    },
    {
      "anonymous": false,
      "inputs": [
        {
          "indexed": false,
          "internalType": "uint256",
          "name": "id",
          "type": "uint256"
        },
        {
          "indexed": false,
          "internalType": "string",
          "name": "name",
          "type": "string"
        },
        {
          "indexed": false,
          "internalType": "uint256",
          "name": "price",
          "type": "uint256"
        },
        {
          "indexed": false,
          "internalType": "address payable",
          "name": "seller",
          "type": "address"
        }
      ],
      "name": "ProductPurchased",
      "type": "event"
    },
    {
      "anonymous": false,
      "inputs": [
        {
          "indexed": false,
          "internalType": "address",
          "name": "sellerAddress",
          "type": "address"
        },
        {
          "indexed": false,
          "internalType": "string",
          "name": "sellerName",
          "type": "string"
        },
        {
          "indexed": false,
          "internalType": "string",
          "name": "sellerPostalAddress",
          "type": "string"
        },
        {
          "indexed": false,
          "internalType": "string",
          "name": "sellerEmail",
          "type": "string"
        },
        {
          "indexed": false,
          "internalType": "uint256",
          "name": "rating",
          "type": "uint256"
        }
      ],
      "name": "SellerRegistered",
      "type": "event"
    },
    {
      "anonymous": false,
      "inputs": [
        {
          "indexed": false,
          "internalType": "address",
          "name": "customerAddress",
          "type": "address"
        },
        {
          "indexed": false,
          "internalType": "string",
          "name": "customerName",
          "type": "string"
        },
        {
          "indexed": false,
          "internalType": "string",
          "name": "customerPostalAddress",
          "type": "string"
        },
        {
          "indexed": false,
          "internalType": "string",
          "name": "customerEmail",
          "type": "string"
        }
      ],
      "name": "customerRegistered",
      "type": "event"
    },
    {
      "constant": false,
      "inputs": [
        {
          "internalType": "string",
          "name": "_sellerName",
          "type": "string"
        },
        {
          "internalType": "string",
          "name": "_postalAddress",
          "type": "string"
        },
        {
          "internalType": "string",
          "name": "_sellerEmail",
          "type": "string"
        }
      ],
      "name": "registerSeller",
      "outputs": [],
      "payable": false,
      "stateMutability": "nonpayable",
      "type": "function"
    },
    {
      "constant": false,
      "inputs": [
        {
          "internalType": "string",
          "name": "_customerName",
          "type": "string"
        },
        {
          "internalType": "string",
          "name": "_postalAddress",
          "type": "string"
        },
        {
          "internalType": "string",
          "name": "_customerEmail",
          "type": "string"
        }
      ],
      "name": "registerCustomer",
      "outputs": [],
      "payable": false,
      "stateMutability": "nonpayable",
      "type": "function"
    },
    {
      "constant": false,
      "inputs": [
        {
          "internalType": "string",
          "name": "_name",
          "type": "string"
        },
        {
          "internalType": "uint256",
          "name": "_price",
          "type": "uint256"
        },
        {
          "internalType": "uint256",
          "name": "_quantity",
          "type": "uint256"
        }
      ],
      "name": "addProduce",
      "outputs": [],
      "payable": false,
      "stateMutability": "nonpayable",
      "type": "function"
    },
    {
      "constant": false,
      "inputs": [
        {
          "internalType": "uint256",
          "name": "_produceID",
          "type": "uint256"
        },
        {
          "internalType": "uint256",
          "name": "_quantity",
          "type": "uint256"
        }
      ],
      "name": "purchaseProduce",
      "outputs": [],
      "payable": true,
      "stateMutability": "payable",
      "type": "function"
    },
    {
      "constant": false,
      "inputs": [
        {
          "internalType": "address",
          "name": "_sellerAddress",
          "type": "address"
        },
        {
          "internalType": "uint256",
          "name": "_rating",
          "type": "uint256"
        },
        {
          "internalType": "uint256",
          "name": "_produceID",
          "type": "uint256"
        }
      ],
      "name": "giveSellerRating",
      "outputs": [
        {
          "internalType": "uint256",
          "name": "",
          "type": "uint256"
        }
      ],
      "payable": false,
      "stateMutability": "nonpayable",
      "type": "function"
    }
  ],
  "bytecode": "0x60806040526000805534801561001457600080fd5b50611b43806100246000396000f3fe60806040526004361061004a5760003560e01c806348da542d1461004f5780635e9bde521461012b578063782191e314610163578063e4986c89146101dc578063f8e66a4d146103d2575b600080fd5b34801561005b57600080fd5b506101296004803603606081101561007257600080fd5b810190808035906020019064010000000081111561008f57600080fd5b8201836020820111156100a157600080fd5b803590602001918460018302840111640100000000831117156100c357600080fd5b91908080601f016020809104026020016040519081016040528093929190818152602001838380828437600081840152601f19601f82011690508083019250505050505050919291929080359060200190929190803590602001909291905050506105c8565b005b6101616004803603604081101561014157600080fd5b810190808035906020019092919080359060200190929190505050610972565b005b34801561016f57600080fd5b506101c66004803603606081101561018657600080fd5b81019080803573ffffffffffffffffffffffffffffffffffffffff1690602001909291908035906020019092919080359060200190929190505050610e8f565b6040518082815260200191505060405180910390f35b3480156101e857600080fd5b506103d0600480360360608110156101ff57600080fd5b810190808035906020019064010000000081111561021c57600080fd5b82018360208201111561022e57600080fd5b8035906020019184600183028401116401000000008311171561025057600080fd5b91908080601f016020809104026020016040519081016040528093929190818152602001838380828437600081840152601f19601f820116905080830192505050505050509192919290803590602001906401000000008111156102b357600080fd5b8201836020820111156102c557600080fd5b803590602001918460018302840111640100000000831117156102e757600080fd5b91908080601f016020809104026020016040519081016040528093929190818152602001838380828437600081840152601f19601f8201169050808301925050505050505091929192908035906020019064010000000081111561034a57600080fd5b82018360208201111561035c57600080fd5b8035906020019184600183028401116401000000008311171561037e57600080fd5b91908080601f016020809104026020016040519081016040528093929190818152602001838380828437600081840152601f19601f820116905080830192505050505050509192919290505050611165565b005b3480156103de57600080fd5b506105c6600480360360608110156103f557600080fd5b810190808035906020019064010000000081111561041257600080fd5b82018360208201111561042457600080fd5b8035906020019184600183028401116401000000008311171561044657600080fd5b91908080601f016020809104026020016040519081016040528093929190818152602001838380828437600081840152601f19601f820116905080830192505050505050509192919290803590602001906401000000008111156104a957600080fd5b8201836020820111156104bb57600080fd5b803590602001918460018302840111640100000000831117156104dd57600080fd5b91908080601f016020809104026020016040519081016040528093929190818152602001838380828437600081840152601f19601f8201169050808301925050505050505091929192908035906020019064010000000081111561054057600080fd5b82018360208201111561055257600080fd5b8035906020019184600183028401116401000000008311171561057457600080fd5b91908080601f016020809104026020016040519081016040528093929190818152602001838380828437600081840152601f19601f820116905080830192505050505050509192919290505050611533565b005b3373ffffffffffffffffffffffffffffffffffffffff16600160003373ffffffffffffffffffffffffffffffffffffffff1673ffffffffffffffffffffffffffffffffffffffff16815260200190815260200160002060000160009054906101000a900473ffffffffffffffffffffffffffffffffffffffff1673ffffffffffffffffffffffffffffffffffffffff16146106ae576040517f08c379a0000000000000000000000000000000000000000000000000000000008152600401808060200182810382526022815260200180611a6e6022913960400191505060405180910390fd5b60008211610724576040517f08c379a00000000000000000000000000000000000000000000000000000000081526004018080602001828103825260118152602001807f50726963652063616e6e6f74206265203000000000000000000000000000000081525060200191505060405180910390fd5b6000811161079a576040517f08c379a00000000000000000000000000000000000000000000000000000000081526004018080602001828103825260118152602001807f50726963652063616e6e6f74206265203000000000000000000000000000000081525060200191505060405180910390fd5b6040518060a0016040528060005481526020018481526020018381526020018281526020013373ffffffffffffffffffffffffffffffffffffffff168152506003600080548152602001908152602001600020600082015181600001556020820151816001019080519060200190610813929190611941565b50604082015181600201556060820151816003015560808201518160040160006101000a81548173ffffffffffffffffffffffffffffffffffffffff021916908373ffffffffffffffffffffffffffffffffffffffff16021790555090505060008081548092919060010191905055507ff2e9d29906d0733013800e4e6385226d9de46b7f6c649df584c679aa4039b5d56000548484843360405180868152602001806020018581526020018481526020018373ffffffffffffffffffffffffffffffffffffffff1673ffffffffffffffffffffffffffffffffffffffff168152602001828103825286818151815260200191508051906020019080838360005b8381101561092f578082015181840152602081019050610914565b50505050905090810190601f16801561095c5780820380516001836020036101000a031916815260200191505b50965050505050505060405180910390a1505050565b3373ffffffffffffffffffffffffffffffffffffffff16600260003373ffffffffffffffffffffffffffffffffffffffff1673ffffffffffffffffffffffffffffffffffffffff16815260200190815260200160002060000160009054906101000a900473ffffffffffffffffffffffffffffffffffffffff1673ffffffffffffffffffffffffffffffffffffffff1614610a58576040517f08c379a0000000000000000000000000000000000000000000000000000000008152600401808060200182810382526022815260200180611ac76022913960400191505060405180910390fd5b6003600083815260200190815260200160002060020154341015610a7b57600080fd5b8060036000848152602001908152602001600020600301541015610b07576040517f08c379a00000000000000000000000000000000000000000000000000000000081526004018080602001828103825260138152602001807f4e6f7420656e6f756768207175616e746974790000000000000000000000000081525060200191505060405180910390fd5b3373ffffffffffffffffffffffffffffffffffffffff166003600084815260200190815260200160002060040160009054906101000a900473ffffffffffffffffffffffffffffffffffffffff1673ffffffffffffffffffffffffffffffffffffffff161415610b7657600080fd5b60036000838152602001908152602001600020600460003373ffffffffffffffffffffffffffffffffffffffff1673ffffffffffffffffffffffffffffffffffffffff16815260200190815260200160002060008481526020019081526020016000206000820154816000015560018201816001019080546001816001161561010002031660029004610c0a9291906119c1565b5060028201548160020155600382015481600301556004820160009054906101000a900473ffffffffffffffffffffffffffffffffffffffff168160040160006101000a81548173ffffffffffffffffffffffffffffffffffffffff021916908373ffffffffffffffffffffffffffffffffffffffff1602179055509050506003600083815260200190815260200160002060030160008154809291906001900391905055506003600083815260200190815260200160002060040160009054906101000a900473ffffffffffffffffffffffffffffffffffffffff1673ffffffffffffffffffffffffffffffffffffffff166108fc349081150290604051600060405180830381858888f19350505050158015610d2c573d6000803e3d6000fd5b507fa11e47d046e4d3dbc2056861a52aae8c7121c61d1ef01f11a17be988d5ef2f31826003600085815260200190815260200160002060010160036000868152602001908152602001600020600201546003600087815260200190815260200160002060040160009054906101000a900473ffffffffffffffffffffffffffffffffffffffff1660405180858152602001806020018481526020018373ffffffffffffffffffffffffffffffffffffffff1673ffffffffffffffffffffffffffffffffffffffff168152602001828103825285818154600181600116156101000203166002900481526020019150805460018160011615610100020316600290048015610e7a5780601f10610e4f57610100808354040283529160200191610e7a565b820191906000526020600020905b815481529060010190602001808311610e5d57829003601f168201915b50509550505050505060405180910390a15050565b60003373ffffffffffffffffffffffffffffffffffffffff166003600084815260200190815260200160002060040160009054906101000a900473ffffffffffffffffffffffffffffffffffffffff1673ffffffffffffffffffffffffffffffffffffffff161415610f69576040517f08c379a000000000000000000000000000000000000000000000000000000000815260040180806020018281038252601d8152602001807f53656c6c65722063616e6e6f742072617465207468656d73656c76657300000081525060200191505060405180910390fd5b8373ffffffffffffffffffffffffffffffffffffffff16600460003373ffffffffffffffffffffffffffffffffffffffff1673ffffffffffffffffffffffffffffffffffffffff168152602001908152602001600020600084815260200190815260200160002060040160009054906101000a900473ffffffffffffffffffffffffffffffffffffffff1673ffffffffffffffffffffffffffffffffffffffff1614611060576040517f08c379a0000000000000000000000000000000000000000000000000000000008152600401808060200182810382526037815260200180611a906037913960400191505060405180910390fd5b60058311156110d7576040517f08c379a000000000000000000000000000000000000000000000000000000000815260040180806020018281038252601c8152602001807f526174696e672063616e6e6f74206265206d6f7265207468616e20350000000081525060200191505060405180910390fd5b82600160008673ffffffffffffffffffffffffffffffffffffffff1673ffffffffffffffffffffffffffffffffffffffff16815260200190815260200160002060040181905550600160008573ffffffffffffffffffffffffffffffffffffffff1673ffffffffffffffffffffffffffffffffffffffff168152602001908152602001600020509392505050565b60008351116111dc576040517f08c379a00000000000000000000000000000000000000000000000000000000081526004018080602001828103825260138152602001807f4e616d652063616e6e6f74206265206e756c6c0000000000000000000000000081525060200191505060405180910390fd5b6000815111611253576040517f08c379a000000000000000000000000000000000000000000000000000000000815260040180806020018281038252601c8152602001807f436f6e7461637420656d61696c2063616e6e6f74206265206e756c6c0000000081525060200191505060405180910390fd5b6040518060a001604052803373ffffffffffffffffffffffffffffffffffffffff1681526020018481526020018381526020018281526020016000815250600160003373ffffffffffffffffffffffffffffffffffffffff1673ffffffffffffffffffffffffffffffffffffffff16815260200190815260200160002060008201518160000160006101000a81548173ffffffffffffffffffffffffffffffffffffffff021916908373ffffffffffffffffffffffffffffffffffffffff1602179055506020820151816001019080519060200190611333929190611941565b506040820151816002019080519060200190611350929190611941565b50606082015181600301908051906020019061136d929190611941565b50608082015181600401559050507f064a64cb7f7d1fd32c4dcca08ff6e329906301a12180b8fc01b8da3228875129338484846000604051808673ffffffffffffffffffffffffffffffffffffffff1673ffffffffffffffffffffffffffffffffffffffff168152602001806020018060200180602001858152602001848103845288818151815260200191508051906020019080838360005b83811015611422578082015181840152602081019050611407565b50505050905090810190601f16801561144f5780820380516001836020036101000a031916815260200191505b50848103835287818151815260200191508051906020019080838360005b8381101561148857808201518184015260208101905061146d565b50505050905090810190601f1680156114b55780820380516001836020036101000a031916815260200191505b50848103825286818151815260200191508051906020019080838360005b838110156114ee5780820151818401526020810190506114d3565b50505050905090810190601f16801561151b5780820380516001836020036101000a031916815260200191505b509850505050505050505060405180910390a1505050565b60008351116115aa576040517f08c379a000000000000000000000000000000000000000000000000000000000815260040180806020018281038252601c8152602001807f437573746f6d6572206e616d652063616e6e6f74206265206e756c6c0000000081525060200191505060405180910390fd5b6000815111611621576040517f08c379a000000000000000000000000000000000000000000000000000000000815260040180806020018281038252601d8152602001807f437573746f6d657220656d61696c2063616e6e6f74206265206e756c6c00000081525060200191505060405180910390fd5b600082511161167b576040517f08c379a0000000000000000000000000000000000000000000000000000000008152600401808060200182810382526026815260200180611ae96026913960400191505060405180910390fd5b60405180608001604052803373ffffffffffffffffffffffffffffffffffffffff16815260200184815260200183815260200182815250600260003373ffffffffffffffffffffffffffffffffffffffff1673ffffffffffffffffffffffffffffffffffffffff16815260200190815260200160002060008201518160000160006101000a81548173ffffffffffffffffffffffffffffffffffffffff021916908373ffffffffffffffffffffffffffffffffffffffff1602179055506020820151816001019080519060200190611754929190611941565b506040820151816002019080519060200190611771929190611941565b50606082015181600301908051906020019061178e929190611941565b509050507f80b1005d2f0f71db6295ef90c8aabc7b99a36dbd669c2d1ac6eb5306bb7b50ee33848484604051808573ffffffffffffffffffffffffffffffffffffffff1673ffffffffffffffffffffffffffffffffffffffff168152602001806020018060200180602001848103845287818151815260200191508051906020019080838360005b83811015611831578082015181840152602081019050611816565b50505050905090810190601f16801561185e5780820380516001836020036101000a031916815260200191505b50848103835286818151815260200191508051906020019080838360005b8381101561189757808201518184015260208101905061187c565b50505050905090810190601f1680156118c45780820380516001836020036101000a031916815260200191505b50848103825285818151815260200191508051906020019080838360005b838110156118fd5780820151818401526020810190506118e2565b50505050905090810190601f16801561192a5780820380516001836020036101000a031916815260200191505b5097505050505050505060405180910390a1505050565b828054600181600116156101000203166002900490600052602060002090601f016020900481019282601f1061198257805160ff19168380011785556119b0565b828001600101855582156119b0579182015b828111156119af578251825591602001919060010190611994565b5b5090506119bd9190611a48565b5090565b828054600181600116156101000203166002900490600052602060002090601f016020900481019282601f106119fa5780548555611a37565b82800160010185558215611a3757600052602060002091601f016020900482015b82811115611a36578254825591600101919060010190611a1b565b5b509050611a449190611a48565b5090565b611a6a91905b80821115611a66576000816000905550600101611a4e565b5090565b9056fe55736572206973206e6f74207265676973746572656420617320612073656c6c6572437573746f6d6572206e6565647320746f20627579207468652070726f64756374206265666f7265206c656176696e672072657669657755736572206973206e6f74207265676973746572656420617320637573746f6d6572437573746f6d657220706f7374616c20616464726573732063616e6e6f74206265206e756c6ca265627a7a7231582031bf202d9ce4acbeed957ec42f404a24927ca1bd2c56597270a9e942b6853cba64736f6c63430005100032",
  "source": "// SPDX-License-Identifier: MIT\npragma solidity >=0.4.22 <0.9.0;\n\ncontract Farmshop {\n    uint256 produceCount = 0;\n    mapping(address => RegisteredSeller) registeredSellers;\n    mapping(address => RegisteredCustomers) registeredCustomers;\n    mapping(uint256 => Produce) produceList;\n    mapping(address => mapping(uint256 => Produce)) customerItems;\n\n    struct Produce {\n        uint256 id;\n        string name;\n        uint256 price;\n        uint256 quantity;\n        address payable seller;\n    }\n\n    struct RegisteredSeller {\n        address sellerAddress;\n        string sellerName;\n        string sellerPostalAddress;\n        string sellerEmail;\n        uint256 rating;\n    }\n\n    struct RegisteredCustomers {\n        address customerAddress;\n        string customerName;\n        string customerPostalAddress;\n        string customerEmail;\n    }\n\n    event SellerRegistered(\n        address sellerAddress,\n        string sellerName,\n        string sellerPostalAddress,\n        string sellerEmail,\n        uint256 rating\n    );\n    event customerRegistered(\n        address customerAddress,\n        string customerName,\n        string customerPostalAddress,\n        string customerEmail\n    );\n    event ProduceAdded(\n        uint256 id,\n        string name,\n        uint256 price,\n        uint256 quantity,\n        address payable seller\n    );\n    event ProductPurchased(\n        uint256 id,\n        string name,\n        uint256 price,\n        address payable seller\n    );\n\n    function registerSeller(\n        string memory _sellerName,\n        string memory _postalAddress,\n        string memory _sellerEmail\n    ) public {\n        //check name is valid\n        require(bytes(_sellerName).length > 0, \"Name cannot be null\");\n        //check contact email is valid\n        require(bytes(_sellerEmail).length > 0, \"Contact email cannot be null\");\n        //Create a Seller\n        registeredSellers[msg.sender] = RegisteredSeller(\n            msg.sender,\n            _sellerName,\n            _postalAddress,\n            _sellerEmail,\n            0\n        );\n        //Emit Event\n        emit SellerRegistered(\n            msg.sender,\n            _sellerName,\n            _postalAddress,\n            _sellerEmail,\n            0\n        );\n    }\n\n    function registerCustomer(\n        string memory _customerName,\n        string memory _postalAddress,\n        string memory _customerEmail\n    ) public {\n        //check name is valid\n        require(\n            bytes(_customerName).length > 0,\n            \"Customer name cannot be null\"\n        );\n        //check contact email is valid\n        require(\n            bytes(_customerEmail).length > 0,\n            \"Customer email cannot be null\"\n        );\n        //check postal address is valid\n        require(\n            bytes(_postalAddress).length > 0,\n            \"Customer postal address cannot be null\"\n        );\n        //Create a Seller\n        registeredCustomers[msg.sender] = RegisteredCustomers(\n            msg.sender,\n            _customerName,\n            _postalAddress,\n            _customerEmail\n        );\n        //Emit Event\n        emit customerRegistered(\n            msg.sender,\n            _customerName,\n            _postalAddress,\n            _customerEmail\n        );\n    }\n\n    function addProduce(\n        string memory _name,\n        uint256 _price,\n        uint256 _quantity\n    ) public {\n        //check if person adding is registred\n        require(\n            registeredSellers[msg.sender].sellerAddress == msg.sender,\n            \"User is not registered as a seller\"\n        );\n        //check if price is valid\n        require(_price > 0, \"Price cannot be 0\");\n        //check if quantity is valid\n        require(_quantity > 0, \"Price cannot be 0\");\n        //add product\n        produceList[produceCount] = Produce(\n            produceCount,\n            _name,\n            _price,\n            _quantity,\n            msg.sender\n        );\n        //increment product counter\n        produceCount++;\n        //emit event\n        emit ProduceAdded(produceCount, _name, _price, _quantity, msg.sender);\n    }\n\n    function purchaseProduce(uint256 _produceID, uint256 _quantity)\n        public\n        payable\n    {\n        // check customer is registered\n        require(\n            registeredCustomers[msg.sender].customerAddress == msg.sender,\n            \"User is not registered as customer\"\n        );\n        //check if msg.value is enough to buy produce\n        require(msg.value >= produceList[_produceID].price);\n        //check if there is enough quanity to buy\n        require(\n            produceList[_produceID].quantity >= _quantity,\n            \"Not enough quantity\"\n        );\n        //check if buyer is not the seller\n        require(produceList[_produceID].seller != msg.sender);\n\n        //add to the customerItems mappings\n        customerItems[msg.sender][_produceID] = produceList[_produceID];\n\n        //reduce the quantity available\n        produceList[_produceID].quantity--;\n\n        //transfer ether to seller\n        address(produceList[_produceID].seller).transfer(msg.value);\n\n        //emit event\n        emit ProductPurchased(\n            _produceID,\n            produceList[_produceID].name,\n            produceList[_produceID].price,\n            produceList[_produceID].seller\n        );\n    }\n\n    function giveSellerRating(\n        address _sellerAddress,\n        uint256 _rating,\n        uint256 _produceID\n    ) public returns (uint256) {\n        //check if the address giving rating is not the seller\n        require(\n            produceList[_produceID].seller != msg.sender,\n            \"Seller cannot rate themselves\"\n        );\n        //check if the customer has bought the product from the seller\n        require(\n            customerItems[msg.sender][_produceID].seller == _sellerAddress,\n            \"Customer needs to buy the product before leaving review\"\n        );\n\n        //check if rating is not greater than 5\n        require(_rating <= 5, \"Rating cannot be more than 5\");\n\n        //add rating\n        registeredSellers[_sellerAddress].rating = _rating;\n\n        //return rating\n        registeredSellers[_sellerAddress].rating;\n    }\n}\n",
  "sourcePath": "/mnt/c/Users/nbhardwaj/Documents/Blockchain/ConsensysAcademy/blockchain-developer-bootcamp-final-project/contracts/Farmshop.sol",
  "compiler": {
    "name": "solc",
    "version": "0.5.16+commit.9c3226ce.Emscripten.clang"
  },
  "schemaVersion": "3.4.3",
  "updatedAt": "2021-11-08T21:44:15.374Z",
  "devdoc": {
    "methods": {}
  },
  "userdoc": {
    "methods": {}
  }
}