{
  "contractName": "Farmshop",
  "abi": [
    {
      "inputs": [],
      "stateMutability": "nonpayable",
      "type": "constructor"
    },
    {
      "anonymous": false,
      "inputs": [
        {
          "indexed": false,
          "internalType": "uint256",
          "name": "id",
          "type": "uint256"
        },
        {
          "indexed": false,
          "internalType": "string",
          "name": "name",
          "type": "string"
        },
        {
          "indexed": false,
          "internalType": "uint256",
          "name": "price",
          "type": "uint256"
        },
        {
          "indexed": false,
          "internalType": "uint256",
          "name": "quantity",
          "type": "uint256"
        },
        {
          "indexed": false,
          "internalType": "address",
          "name": "seller",
          "type": "address"
        }
      ],
      "name": "ProduceAdded",
      "type": "event"
    },
    {
      "anonymous": false,
      "inputs": [
        {
          "indexed": false,
          "internalType": "uint256",
          "name": "id",
          "type": "uint256"
        },
        {
          "indexed": false,
          "internalType": "string",
          "name": "name",
          "type": "string"
        },
        {
          "indexed": false,
          "internalType": "uint256",
          "name": "price",
          "type": "uint256"
        },
        {
          "indexed": false,
          "internalType": "address",
          "name": "seller",
          "type": "address"
        },
        {
          "indexed": false,
          "internalType": "address",
          "name": "customer",
          "type": "address"
        }
      ],
      "name": "ProductPurchased",
      "type": "event"
    },
    {
      "anonymous": false,
      "inputs": [
        {
          "indexed": true,
          "internalType": "bytes32",
          "name": "role",
          "type": "bytes32"
        },
        {
          "indexed": true,
          "internalType": "bytes32",
          "name": "previousAdminRole",
          "type": "bytes32"
        },
        {
          "indexed": true,
          "internalType": "bytes32",
          "name": "newAdminRole",
          "type": "bytes32"
        }
      ],
      "name": "RoleAdminChanged",
      "type": "event"
    },
    {
      "anonymous": false,
      "inputs": [
        {
          "indexed": true,
          "internalType": "bytes32",
          "name": "role",
          "type": "bytes32"
        },
        {
          "indexed": true,
          "internalType": "address",
          "name": "account",
          "type": "address"
        },
        {
          "indexed": true,
          "internalType": "address",
          "name": "sender",
          "type": "address"
        }
      ],
      "name": "RoleGranted",
      "type": "event"
    },
    {
      "anonymous": false,
      "inputs": [
        {
          "indexed": true,
          "internalType": "bytes32",
          "name": "role",
          "type": "bytes32"
        },
        {
          "indexed": true,
          "internalType": "address",
          "name": "account",
          "type": "address"
        },
        {
          "indexed": true,
          "internalType": "address",
          "name": "sender",
          "type": "address"
        }
      ],
      "name": "RoleRevoked",
      "type": "event"
    },
    {
      "anonymous": false,
      "inputs": [
        {
          "indexed": false,
          "internalType": "address",
          "name": "sellerAddress",
          "type": "address"
        },
        {
          "indexed": false,
          "internalType": "string",
          "name": "sellerName",
          "type": "string"
        },
        {
          "indexed": false,
          "internalType": "string",
          "name": "sellerPostalAddress",
          "type": "string"
        },
        {
          "indexed": false,
          "internalType": "string",
          "name": "sellerEmail",
          "type": "string"
        },
        {
          "indexed": false,
          "internalType": "uint256",
          "name": "rating",
          "type": "uint256"
        }
      ],
      "name": "SellerRegistered",
      "type": "event"
    },
    {
      "anonymous": false,
      "inputs": [
        {
          "indexed": false,
          "internalType": "address",
          "name": "customerAddress",
          "type": "address"
        },
        {
          "indexed": false,
          "internalType": "string",
          "name": "customerName",
          "type": "string"
        },
        {
          "indexed": false,
          "internalType": "string",
          "name": "customerPostalAddress",
          "type": "string"
        },
        {
          "indexed": false,
          "internalType": "string",
          "name": "customerEmail",
          "type": "string"
        }
      ],
      "name": "customerRegistered",
      "type": "event"
    },
    {
      "inputs": [],
      "name": "CUSTOMER_ROLE",
      "outputs": [
        {
          "internalType": "bytes32",
          "name": "",
          "type": "bytes32"
        }
      ],
      "stateMutability": "view",
      "type": "function",
      "constant": true
    },
    {
      "inputs": [],
      "name": "DEFAULT_ADMIN_ROLE",
      "outputs": [
        {
          "internalType": "bytes32",
          "name": "",
          "type": "bytes32"
        }
      ],
      "stateMutability": "view",
      "type": "function",
      "constant": true
    },
    {
      "inputs": [],
      "name": "SELLER_ROLE",
      "outputs": [
        {
          "internalType": "bytes32",
          "name": "",
          "type": "bytes32"
        }
      ],
      "stateMutability": "view",
      "type": "function",
      "constant": true
    },
    {
      "inputs": [
        {
          "internalType": "address",
          "name": "account",
          "type": "address"
        }
      ],
      "name": "addCustomer",
      "outputs": [],
      "stateMutability": "nonpayable",
      "type": "function"
    },
    {
      "inputs": [
        {
          "internalType": "address",
          "name": "account",
          "type": "address"
        }
      ],
      "name": "addSeller",
      "outputs": [],
      "stateMutability": "nonpayable",
      "type": "function"
    },
    {
      "inputs": [],
      "name": "customerCount",
      "outputs": [
        {
          "internalType": "uint256",
          "name": "",
          "type": "uint256"
        }
      ],
      "stateMutability": "view",
      "type": "function",
      "constant": true
    },
    {
      "inputs": [
        {
          "internalType": "uint256",
          "name": "",
          "type": "uint256"
        }
      ],
      "name": "customerOrders",
      "outputs": [
        {
          "internalType": "string",
          "name": "produceName",
          "type": "string"
        },
        {
          "internalType": "uint256",
          "name": "quantityBought",
          "type": "uint256"
        },
        {
          "internalType": "uint256",
          "name": "pricePaid",
          "type": "uint256"
        },
        {
          "internalType": "address",
          "name": "customer",
          "type": "address"
        },
        {
          "internalType": "address",
          "name": "seller",
          "type": "address"
        }
      ],
      "stateMutability": "view",
      "type": "function",
      "constant": true
    },
    {
      "inputs": [
        {
          "internalType": "address",
          "name": "",
          "type": "address"
        }
      ],
      "name": "customerState",
      "outputs": [
        {
          "internalType": "uint256",
          "name": "",
          "type": "uint256"
        }
      ],
      "stateMutability": "view",
      "type": "function",
      "constant": true
    },
    {
      "inputs": [
        {
          "internalType": "bytes32",
          "name": "role",
          "type": "bytes32"
        }
      ],
      "name": "getRoleAdmin",
      "outputs": [
        {
          "internalType": "bytes32",
          "name": "",
          "type": "bytes32"
        }
      ],
      "stateMutability": "view",
      "type": "function",
      "constant": true
    },
    {
      "inputs": [
        {
          "internalType": "bytes32",
          "name": "role",
          "type": "bytes32"
        },
        {
          "internalType": "address",
          "name": "account",
          "type": "address"
        }
      ],
      "name": "grantRole",
      "outputs": [],
      "stateMutability": "nonpayable",
      "type": "function"
    },
    {
      "inputs": [
        {
          "internalType": "bytes32",
          "name": "role",
          "type": "bytes32"
        },
        {
          "internalType": "address",
          "name": "account",
          "type": "address"
        }
      ],
      "name": "hasRole",
      "outputs": [
        {
          "internalType": "bool",
          "name": "",
          "type": "bool"
        }
      ],
      "stateMutability": "view",
      "type": "function",
      "constant": true
    },
    {
      "inputs": [
        {
          "internalType": "address",
          "name": "account",
          "type": "address"
        }
      ],
      "name": "isAdmin",
      "outputs": [
        {
          "internalType": "bool",
          "name": "",
          "type": "bool"
        }
      ],
      "stateMutability": "view",
      "type": "function",
      "constant": true
    },
    {
      "inputs": [
        {
          "internalType": "address",
          "name": "account",
          "type": "address"
        }
      ],
      "name": "isCustomer",
      "outputs": [
        {
          "internalType": "bool",
          "name": "",
          "type": "bool"
        }
      ],
      "stateMutability": "view",
      "type": "function",
      "constant": true
    },
    {
      "inputs": [
        {
          "internalType": "address",
          "name": "account",
          "type": "address"
        }
      ],
      "name": "isSeller",
      "outputs": [
        {
          "internalType": "bool",
          "name": "",
          "type": "bool"
        }
      ],
      "stateMutability": "view",
      "type": "function",
      "constant": true
    },
    {
      "inputs": [],
      "name": "orderCount",
      "outputs": [
        {
          "internalType": "uint256",
          "name": "",
          "type": "uint256"
        }
      ],
      "stateMutability": "view",
      "type": "function",
      "constant": true
    },
    {
      "inputs": [],
      "name": "produceCount",
      "outputs": [
        {
          "internalType": "uint256",
          "name": "",
          "type": "uint256"
        }
      ],
      "stateMutability": "view",
      "type": "function",
      "constant": true
    },
    {
      "inputs": [
        {
          "internalType": "uint256",
          "name": "",
          "type": "uint256"
        }
      ],
      "name": "produceList",
      "outputs": [
        {
          "internalType": "uint256",
          "name": "id",
          "type": "uint256"
        },
        {
          "internalType": "string",
          "name": "name",
          "type": "string"
        },
        {
          "internalType": "uint256",
          "name": "price",
          "type": "uint256"
        },
        {
          "internalType": "uint256",
          "name": "quantity",
          "type": "uint256"
        },
        {
          "internalType": "address payable",
          "name": "seller",
          "type": "address"
        }
      ],
      "stateMutability": "view",
      "type": "function",
      "constant": true
    },
    {
      "inputs": [
        {
          "internalType": "uint256",
          "name": "",
          "type": "uint256"
        }
      ],
      "name": "registeredCustomers",
      "outputs": [
        {
          "internalType": "address",
          "name": "customerAddress",
          "type": "address"
        },
        {
          "internalType": "string",
          "name": "customerName",
          "type": "string"
        },
        {
          "internalType": "string",
          "name": "customerPostalAddress",
          "type": "string"
        },
        {
          "internalType": "string",
          "name": "customerEmail",
          "type": "string"
        }
      ],
      "stateMutability": "view",
      "type": "function",
      "constant": true
    },
    {
      "inputs": [
        {
          "internalType": "uint256",
          "name": "",
          "type": "uint256"
        }
      ],
      "name": "registeredSellers",
      "outputs": [
        {
          "internalType": "address",
          "name": "sellerAddress",
          "type": "address"
        },
        {
          "internalType": "string",
          "name": "sellerName",
          "type": "string"
        },
        {
          "internalType": "string",
          "name": "sellerPostalAddress",
          "type": "string"
        },
        {
          "internalType": "string",
          "name": "sellerEmail",
          "type": "string"
        },
        {
          "internalType": "uint256",
          "name": "rating",
          "type": "uint256"
        }
      ],
      "stateMutability": "view",
      "type": "function",
      "constant": true
    },
    {
      "inputs": [
        {
          "internalType": "address",
          "name": "account",
          "type": "address"
        }
      ],
      "name": "removeCustomer",
      "outputs": [],
      "stateMutability": "nonpayable",
      "type": "function"
    },
    {
      "inputs": [
        {
          "internalType": "address",
          "name": "account",
          "type": "address"
        }
      ],
      "name": "removeSeller",
      "outputs": [],
      "stateMutability": "nonpayable",
      "type": "function"
    },
    {
      "inputs": [
        {
          "internalType": "bytes32",
          "name": "role",
          "type": "bytes32"
        },
        {
          "internalType": "address",
          "name": "account",
          "type": "address"
        }
      ],
      "name": "renounceRole",
      "outputs": [],
      "stateMutability": "nonpayable",
      "type": "function"
    },
    {
      "inputs": [
        {
          "internalType": "bytes32",
          "name": "role",
          "type": "bytes32"
        },
        {
          "internalType": "address",
          "name": "account",
          "type": "address"
        }
      ],
      "name": "revokeRole",
      "outputs": [],
      "stateMutability": "nonpayable",
      "type": "function"
    },
    {
      "inputs": [],
      "name": "sellerCount",
      "outputs": [
        {
          "internalType": "uint256",
          "name": "",
          "type": "uint256"
        }
      ],
      "stateMutability": "view",
      "type": "function",
      "constant": true
    },
    {
      "inputs": [
        {
          "internalType": "address",
          "name": "",
          "type": "address"
        }
      ],
      "name": "sellerState",
      "outputs": [
        {
          "internalType": "uint256",
          "name": "",
          "type": "uint256"
        }
      ],
      "stateMutability": "view",
      "type": "function",
      "constant": true
    },
    {
      "inputs": [
        {
          "internalType": "bytes4",
          "name": "interfaceId",
          "type": "bytes4"
        }
      ],
      "name": "supportsInterface",
      "outputs": [
        {
          "internalType": "bool",
          "name": "",
          "type": "bool"
        }
      ],
      "stateMutability": "view",
      "type": "function",
      "constant": true
    },
    {
      "inputs": [
        {
          "internalType": "string",
          "name": "_sellerName",
          "type": "string"
        },
        {
          "internalType": "string",
          "name": "_postalAddress",
          "type": "string"
        },
        {
          "internalType": "string",
          "name": "_sellerEmail",
          "type": "string"
        },
        {
          "internalType": "address",
          "name": "sellerAddress",
          "type": "address"
        }
      ],
      "name": "registerSeller",
      "outputs": [],
      "stateMutability": "nonpayable",
      "type": "function"
    },
    {
      "inputs": [
        {
          "internalType": "string",
          "name": "_customerName",
          "type": "string"
        },
        {
          "internalType": "string",
          "name": "_postalAddress",
          "type": "string"
        },
        {
          "internalType": "string",
          "name": "_customerEmail",
          "type": "string"
        }
      ],
      "name": "registerCustomer",
      "outputs": [],
      "stateMutability": "nonpayable",
      "type": "function"
    },
    {
      "inputs": [
        {
          "internalType": "string",
          "name": "_name",
          "type": "string"
        },
        {
          "internalType": "uint256",
          "name": "_price",
          "type": "uint256"
        },
        {
          "internalType": "uint256",
          "name": "_quantity",
          "type": "uint256"
        }
      ],
      "name": "addProduce",
      "outputs": [],
      "stateMutability": "nonpayable",
      "type": "function"
    },
    {
      "inputs": [
        {
          "internalType": "uint256",
          "name": "_produceID",
          "type": "uint256"
        },
        {
          "internalType": "uint256",
          "name": "_quantity",
          "type": "uint256"
        }
      ],
      "name": "purchaseProduce",
      "outputs": [],
      "stateMutability": "payable",
      "type": "function",
      "payable": true
    },
    {
      "inputs": [
        {
          "internalType": "address",
          "name": "_sellerAddress",
          "type": "address"
        },
        {
          "internalType": "uint256",
          "name": "_rating",
          "type": "uint256"
        },
        {
          "internalType": "uint256",
          "name": "_produceID",
          "type": "uint256"
        },
        {
          "internalType": "uint256",
          "name": "_orderID",
          "type": "uint256"
        }
      ],
      "name": "giveSellerRating",
      "outputs": [
        {
          "internalType": "uint256",
          "name": "",
          "type": "uint256"
        }
      ],
      "stateMutability": "nonpayable",
      "type": "function"
    }
  ],
  "bytecode": "0x608060405260006001556000600255600060035560006004553480156200002557600080fd5b506200003b6000801b336200004160201b60201c565b620001ba565b6200005382826200005760201b60201c565b5050565b6200006982826200014860201b60201c565b6200014457600160008084815260200190815260200160002060000160008373ffffffffffffffffffffffffffffffffffffffff1673ffffffffffffffffffffffffffffffffffffffff16815260200190815260200160002060006101000a81548160ff021916908315150217905550620000e9620001b260201b60201c565b73ffffffffffffffffffffffffffffffffffffffff168173ffffffffffffffffffffffffffffffffffffffff16837f2f8788117e7eff1d82e926ec794901d17c78024a50270940304540a733656f0d60405160405180910390a45b5050565b600080600084815260200190815260200160002060000160008373ffffffffffffffffffffffffffffffffffffffff1673ffffffffffffffffffffffffffffffffffffffff16815260200190815260200160002060009054906101000a900460ff16905092915050565b600033905090565b613a2c80620001ca6000396000f3fe6080604052600436106101d85760003560e01c8063769428d4116101025780639757e8a311610095578063d93fabfa11610064578063d93fabfa1461072e578063dbe4613d14610757578063ee95feaf14610782578063f8e66a4d146107bf576101d8565b80639757e8a314610686578063a217fddf146106b1578063ad973d74146106dc578063d547741f14610705576101d8565b80638a05da48116100d15780638a05da481461059e5780638a2b4e29146105df5780638eb06ccf1461062057806391d1485414610649576101d8565b8063769428d4146104cc5780637cb9cf54146104f75780638777627614610520578063882271f014610561576101d8565b806336568abe1161017a57806359fa9b1f1161014957806359fa9b1f1461041f5780635e9bde521461044a578063660e2d971461046657806373fd238a146104a3576101d8565b806336568abe146103505780633f6af8051461037957806344367656146103b957806348da542d146103f6576101d8565b8063248a9ca3116101b6578063248a9ca31461027057806324d7806c146102ad57806328fd5e83146102ea5780632f2ff15d14610327576101d8565b806301ffc9a7146101dd578063204d79231461021a5780632453ffa814610245575b600080fd5b3480156101e957600080fd5b5061020460048036038101906101ff919061256b565b6107e8565b60405161021191906125b3565b60405180910390f35b34801561022657600080fd5b5061022f610862565b60405161023c91906125e7565b60405180910390f35b34801561025157600080fd5b5061025a610886565b604051610267919061261b565b60405180910390f35b34801561027c57600080fd5b5061029760048036038101906102929190612662565b61088c565b6040516102a491906125e7565b60405180910390f35b3480156102b957600080fd5b506102d460048036038101906102cf91906126ed565b6108ab565b6040516102e191906125b3565b60405180910390f35b3480156102f657600080fd5b50610311600480360381019061030c91906126ed565b6108c1565b60405161031e91906125b3565b60405180910390f35b34801561033357600080fd5b5061034e6004803603810190610349919061271a565b6108f4565b005b34801561035c57600080fd5b506103776004803603810190610372919061271a565b61091d565b005b34801561038557600080fd5b506103a0600480360381019061039b9190612786565b6109a0565b6040516103b0949392919061285b565b60405180910390f35b3480156103c557600080fd5b506103e060048036038101906103db91906126ed565b610b88565b6040516103ed919061261b565b60405180910390f35b34801561040257600080fd5b5061041d600480360381019061041891906129ea565b610ba0565b005b34801561042b57600080fd5b50610434610da5565b604051610441919061261b565b60405180910390f35b610464600480360381019061045f9190612a59565b610dab565b005b34801561047257600080fd5b5061048d60048036038101906104889190612a99565b61127d565b60405161049a919061261b565b60405180910390f35b3480156104af57600080fd5b506104ca60048036038101906104c59190612b00565b611494565b005b3480156104d857600080fd5b506104e16116c9565b6040516104ee919061261b565b60405180910390f35b34801561050357600080fd5b5061051e600480360381019061051991906126ed565b6116cf565b005b34801561052c57600080fd5b5061054760048036038101906105429190612786565b611744565b604051610558959493929190612bbb565b60405180910390f35b34801561056d57600080fd5b50610588600480360381019061058391906126ed565b611842565b604051610595919061261b565b60405180910390f35b3480156105aa57600080fd5b506105c560048036038101906105c09190612786565b61185a565b6040516105d6959493929190612c36565b60405180910390f35b3480156105eb57600080fd5b5061060660048036038101906106019190612786565b611938565b604051610617959493929190612c90565b60405180910390f35b34801561062c57600080fd5b50610647600480360381019061064291906126ed565b611b26565b005b34801561065557600080fd5b50610670600480360381019061066b919061271a565b611b9b565b60405161067d91906125b3565b60405180910390f35b34801561069257600080fd5b5061069b611c05565b6040516106a8919061261b565b60405180910390f35b3480156106bd57600080fd5b506106c6611c0b565b6040516106d391906125e7565b60405180910390f35b3480156106e857600080fd5b5061070360048036038101906106fe91906126ed565b611c12565b005b34801561071157600080fd5b5061072c6004803603810190610727919061271a565b611c3f565b005b34801561073a57600080fd5b50610755600480360381019061075091906126ed565b611c68565b005b34801561076357600080fd5b5061076c611cdd565b60405161077991906125e7565b60405180910390f35b34801561078e57600080fd5b506107a960048036038101906107a491906126ed565b611d01565b6040516107b691906125b3565b60405180910390f35b3480156107cb57600080fd5b506107e660048036038101906107e19190612cf8565b611d34565b005b60007f7965db0b000000000000000000000000000000000000000000000000000000007bffffffffffffffffffffffffffffffffffffffffffffffffffffffff1916827bffffffffffffffffffffffffffffffffffffffffffffffffffffffff1916148061085b575061085a82611f50565b5b9050919050565b7fb2ebd6afe8ba024614156b3c81d408e68cbe372754a5503c8b7f07bbace9f6ba81565b60045481565b6000806000838152602001908152602001600020600101549050919050565b60006108ba6000801b83611b9b565b9050919050565b60006108ed7fb2ebd6afe8ba024614156b3c81d408e68cbe372754a5503c8b7f07bbace9f6ba83611b9b565b9050919050565b6108fd8261088c565b61090e81610909611fba565b611fc2565b610918838361205f565b505050565b610925611fba565b73ffffffffffffffffffffffffffffffffffffffff168173ffffffffffffffffffffffffffffffffffffffff1614610992576040517f08c379a000000000000000000000000000000000000000000000000000000000815260040161098990612e11565b60405180910390fd5b61099c828261213f565b5050565b60066020528060005260406000206000915090508060000160009054906101000a900473ffffffffffffffffffffffffffffffffffffffff16908060010180546109e990612e60565b80601f0160208091040260200160405190810160405280929190818152602001828054610a1590612e60565b8015610a625780601f10610a3757610100808354040283529160200191610a62565b820191906000526020600020905b815481529060010190602001808311610a4557829003601f168201915b505050505090806002018054610a7790612e60565b80601f0160208091040260200160405190810160405280929190818152602001828054610aa390612e60565b8015610af05780601f10610ac557610100808354040283529160200191610af0565b820191906000526020600020905b815481529060010190602001808311610ad357829003601f168201915b505050505090806003018054610b0590612e60565b80601f0160208091040260200160405190810160405280929190818152602001828054610b3190612e60565b8015610b7e5780601f10610b5357610100808354040283529160200191610b7e565b820191906000526020600020905b815481529060010190602001808311610b6157829003601f168201915b5050505050905084565b60086020528060005260406000206000915090505481565b610ba933611d01565b610be8576040517f08c379a0000000000000000000000000000000000000000000000000000000008152600401610bdf90612ede565b60405180910390fd5b60008211610c2b576040517f08c379a0000000000000000000000000000000000000000000000000000000008152600401610c2290612f4a565b60405180910390fd5b60008111610c6e576040517f08c379a0000000000000000000000000000000000000000000000000000000008152600401610c6590612f4a565b60405180910390fd5b60016000815480929190610c8190612f99565b91905055506040518060a0016040528060015481526020018481526020018381526020018281526020013373ffffffffffffffffffffffffffffffffffffffff16815250600760006001548152602001908152602001600020600082015181600001556020820151816001019080519060200190610d0092919061245c565b50604082015181600201556060820151816003015560808201518160040160006101000a81548173ffffffffffffffffffffffffffffffffffffffff021916908373ffffffffffffffffffffffffffffffffffffffff1602179055509050507ff2e9d29906d0733013800e4e6385226d9de46b7f6c649df584c679aa4039b5d560015484848433604051610d98959493929190612fe2565b60405180910390a1505050565b60025481565b610db4336108c1565b610df3576040517f08c379a0000000000000000000000000000000000000000000000000000000008152600401610dea90613088565b60405180910390fd5b806007600084815260200190815260200160002060020154610e1591906130a8565b341015610e2157600080fd5b8060076000848152602001908152602001600020600301541015610e7a576040517f08c379a0000000000000000000000000000000000000000000000000000000008152600401610e719061314e565b60405180910390fd5b3373ffffffffffffffffffffffffffffffffffffffff166007600084815260200190815260200160002060040160009054906101000a900473ffffffffffffffffffffffffffffffffffffffff1673ffffffffffffffffffffffffffffffffffffffff161415610ee957600080fd5b60046000815480929190610efc90612f99565b91905055506040518060a00160405280600760008581526020019081526020016000206001018054610f2d90612e60565b80601f0160208091040260200160405190810160405280929190818152602001828054610f5990612e60565b8015610fa65780601f10610f7b57610100808354040283529160200191610fa6565b820191906000526020600020905b815481529060010190602001808311610f8957829003601f168201915b50505050508152602001828152602001826007600086815260200190815260200160002060020154610fd891906130a8565b81526020013373ffffffffffffffffffffffffffffffffffffffff1681526020016007600085815260200190815260200160002060040160009054906101000a900473ffffffffffffffffffffffffffffffffffffffff1673ffffffffffffffffffffffffffffffffffffffff16815250600a60006004548152602001908152602001600020600082015181600001908051906020019061107a92919061245c565b50602082015181600101556040820151816002015560608201518160030160006101000a81548173ffffffffffffffffffffffffffffffffffffffff021916908373ffffffffffffffffffffffffffffffffffffffff16021790555060808201518160040160006101000a81548173ffffffffffffffffffffffffffffffffffffffff021916908373ffffffffffffffffffffffffffffffffffffffff160217905550905050806007600084815260200190815260200160002060030154611142919061316e565b60076000848152602001908152602001600020600301819055506007600083815260200190815260200160002060040160009054906101000a900473ffffffffffffffffffffffffffffffffffffffff1673ffffffffffffffffffffffffffffffffffffffff166108fc349081150290604051600060405180830381858888f193505050501580156111d8573d6000803e3d6000fd5b507f0ec3a2a7db8265630b6b34629ebe9900056ed7ebc18bebe60aa2b33fa345a594826007600085815260200190815260200160002060010160076000868152602001908152602001600020600201546007600087815260200190815260200160002060040160009054906101000a900473ffffffffffffffffffffffffffffffffffffffff1633604051611271959493929190613296565b60405180910390a15050565b6000611288336108c1565b6112c7576040517f08c379a00000000000000000000000000000000000000000000000000000000081526004016112be90613088565b60405180910390fd5b3373ffffffffffffffffffffffffffffffffffffffff166007600085815260200190815260200160002060040160009054906101000a900473ffffffffffffffffffffffffffffffffffffffff1673ffffffffffffffffffffffffffffffffffffffff16141561136c576040517f08c379a00000000000000000000000000000000000000000000000000000000081526004016113639061333c565b60405180910390fd5b8473ffffffffffffffffffffffffffffffffffffffff16600a600084815260200190815260200160002060040160009054906101000a900473ffffffffffffffffffffffffffffffffffffffff1673ffffffffffffffffffffffffffffffffffffffff1614611410576040517f08c379a0000000000000000000000000000000000000000000000000000000008152600401611407906133ce565b60405180910390fd5b6005841115611454576040517f08c379a000000000000000000000000000000000000000000000000000000000815260040161144b9061343a565b60405180910390fd5b8360056000600254815260200190815260200160002060040181905550600560006002548152602001908152602001600020600401549050949350505050565b61149d336108ab565b6114dc576040517f08c379a00000000000000000000000000000000000000000000000000000000081526004016114d3906134a6565b60405180910390fd5b6000845111611520576040517f08c379a000000000000000000000000000000000000000000000000000000000815260040161151790613512565b60405180910390fd5b6000825111611564576040517f08c379a000000000000000000000000000000000000000000000000000000000815260040161155b9061357e565b60405180910390fd5b6002600081548092919061157790612f99565b91905055506040518060a001604052808273ffffffffffffffffffffffffffffffffffffffff168152602001858152602001848152602001838152602001600081525060056000600254815260200190815260200160002060008201518160000160006101000a81548173ffffffffffffffffffffffffffffffffffffffff021916908373ffffffffffffffffffffffffffffffffffffffff160217905550602082015181600101908051906020019061163292919061245c565b50604082015181600201908051906020019061164f92919061245c565b50606082015181600301908051906020019061166c92919061245c565b506080820151816004015590505061168381611c68565b7f064a64cb7f7d1fd32c4dcca08ff6e329906301a12180b8fc01b8da32288751293385858560006040516116bb9594939291906135d9565b60405180910390a150505050565b60015481565b6116d8336108ab565b611717576040517f08c379a000000000000000000000000000000000000000000000000000000000815260040161170e906134a6565b60405180910390fd5b6117417fab727555e1a579ca2f00d4f6682bede92e5e46e287e8b1a6f243044c1ec5b7ac82611c3f565b50565b600a60205280600052604060002060009150905080600001805461176790612e60565b80601f016020809104026020016040519081016040528092919081815260200182805461179390612e60565b80156117e05780601f106117b5576101008083540402835291602001916117e0565b820191906000526020600020905b8154815290600101906020018083116117c357829003601f168201915b5050505050908060010154908060020154908060030160009054906101000a900473ffffffffffffffffffffffffffffffffffffffff16908060040160009054906101000a900473ffffffffffffffffffffffffffffffffffffffff16905085565b60096020528060005260406000206000915090505481565b600760205280600052604060002060009150905080600001549080600101805461188390612e60565b80601f01602080910402602001604051908101604052809291908181526020018280546118af90612e60565b80156118fc5780601f106118d1576101008083540402835291602001916118fc565b820191906000526020600020905b8154815290600101906020018083116118df57829003601f168201915b5050505050908060020154908060030154908060040160009054906101000a900473ffffffffffffffffffffffffffffffffffffffff16905085565b60056020528060005260406000206000915090508060000160009054906101000a900473ffffffffffffffffffffffffffffffffffffffff169080600101805461198190612e60565b80601f01602080910402602001604051908101604052809291908181526020018280546119ad90612e60565b80156119fa5780601f106119cf576101008083540402835291602001916119fa565b820191906000526020600020905b8154815290600101906020018083116119dd57829003601f168201915b505050505090806002018054611a0f90612e60565b80601f0160208091040260200160405190810160405280929190818152602001828054611a3b90612e60565b8015611a885780601f10611a5d57610100808354040283529160200191611a88565b820191906000526020600020905b815481529060010190602001808311611a6b57829003601f168201915b505050505090806003018054611a9d90612e60565b80601f0160208091040260200160405190810160405280929190818152602001828054611ac990612e60565b8015611b165780601f10611aeb57610100808354040283529160200191611b16565b820191906000526020600020905b815481529060010190602001808311611af957829003601f168201915b5050505050908060040154905085565b611b2f336108ab565b611b6e576040517f08c379a0000000000000000000000000000000000000000000000000000000008152600401611b65906134a6565b60405180910390fd5b611b987fb2ebd6afe8ba024614156b3c81d408e68cbe372754a5503c8b7f07bbace9f6ba82611c3f565b50565b600080600084815260200190815260200160002060000160008373ffffffffffffffffffffffffffffffffffffffff1673ffffffffffffffffffffffffffffffffffffffff16815260200190815260200160002060009054906101000a900460ff16905092915050565b60035481565b6000801b81565b611c3c7fb2ebd6afe8ba024614156b3c81d408e68cbe372754a5503c8b7f07bbace9f6ba8261205f565b50565b611c488261088c565b611c5981611c54611fba565b611fc2565b611c63838361213f565b505050565b611c71336108ab565b611cb0576040517f08c379a0000000000000000000000000000000000000000000000000000000008152600401611ca7906134a6565b60405180910390fd5b611cda7fab727555e1a579ca2f00d4f6682bede92e5e46e287e8b1a6f243044c1ec5b7ac826108f4565b50565b7fab727555e1a579ca2f00d4f6682bede92e5e46e287e8b1a6f243044c1ec5b7ac81565b6000611d2d7fab727555e1a579ca2f00d4f6682bede92e5e46e287e8b1a6f243044c1ec5b7ac83611b9b565b9050919050565b6000835111611d78576040517f08c379a0000000000000000000000000000000000000000000000000000000008152600401611d6f9061368d565b60405180910390fd5b6000815111611dbc576040517f08c379a0000000000000000000000000000000000000000000000000000000008152600401611db3906136f9565b60405180910390fd5b6000825111611e00576040517f08c379a0000000000000000000000000000000000000000000000000000000008152600401611df79061378b565b60405180910390fd5b60036000815480929190611e1390612f99565b919050555060405180608001604052803373ffffffffffffffffffffffffffffffffffffffff1681526020018481526020018381526020018281525060066000600354815260200190815260200160002060008201518160000160006101000a81548173ffffffffffffffffffffffffffffffffffffffff021916908373ffffffffffffffffffffffffffffffffffffffff1602179055506020820151816001019080519060200190611ec792919061245c565b506040820151816002019080519060200190611ee492919061245c565b506060820151816003019080519060200190611f0192919061245c565b50905050611f0e33611c12565b7f80b1005d2f0f71db6295ef90c8aabc7b99a36dbd669c2d1ac6eb5306bb7b50ee33848484604051611f43949392919061285b565b60405180910390a1505050565b60007f01ffc9a7000000000000000000000000000000000000000000000000000000007bffffffffffffffffffffffffffffffffffffffffffffffffffffffff1916827bffffffffffffffffffffffffffffffffffffffffffffffffffffffff1916149050919050565b600033905090565b611fcc8282611b9b565b61205b57611ff18173ffffffffffffffffffffffffffffffffffffffff166014612220565b611fff8360001c6020612220565b60405160200161201092919061387f565b6040516020818303038152906040526040517f08c379a000000000000000000000000000000000000000000000000000000000815260040161205291906138b9565b60405180910390fd5b5050565b6120698282611b9b565b61213b57600160008084815260200190815260200160002060000160008373ffffffffffffffffffffffffffffffffffffffff1673ffffffffffffffffffffffffffffffffffffffff16815260200190815260200160002060006101000a81548160ff0219169083151502179055506120e0611fba565b73ffffffffffffffffffffffffffffffffffffffff168173ffffffffffffffffffffffffffffffffffffffff16837f2f8788117e7eff1d82e926ec794901d17c78024a50270940304540a733656f0d60405160405180910390a45b5050565b6121498282611b9b565b1561221c57600080600084815260200190815260200160002060000160008373ffffffffffffffffffffffffffffffffffffffff1673ffffffffffffffffffffffffffffffffffffffff16815260200190815260200160002060006101000a81548160ff0219169083151502179055506121c1611fba565b73ffffffffffffffffffffffffffffffffffffffff168173ffffffffffffffffffffffffffffffffffffffff16837ff6391f5c32d9c69d2a47ea670b442974b53935d1edc7fd64eb21e047a839171b60405160405180910390a45b5050565b60606000600283600261223391906130a8565b61223d91906138db565b67ffffffffffffffff811115612256576122556128bf565b5b6040519080825280601f01601f1916602001820160405280156122885781602001600182028036833780820191505090505b5090507f3000000000000000000000000000000000000000000000000000000000000000816000815181106122c0576122bf613931565b5b60200101907effffffffffffffffffffffffffffffffffffffffffffffffffffffffffffff1916908160001a9053507f78000000000000000000000000000000000000000000000000000000000000008160018151811061232457612323613931565b5b60200101907effffffffffffffffffffffffffffffffffffffffffffffffffffffffffffff1916908160001a9053506000600184600261236491906130a8565b61236e91906138db565b90505b600181111561240e577f3031323334353637383961626364656600000000000000000000000000000000600f8616601081106123b0576123af613931565b5b1a60f81b8282815181106123c7576123c6613931565b5b60200101907effffffffffffffffffffffffffffffffffffffffffffffffffffffffffffff1916908160001a905350600485901c94508061240790613960565b9050612371565b5060008414612452576040517f08c379a0000000000000000000000000000000000000000000000000000000008152600401612449906139d6565b60405180910390fd5b8091505092915050565b82805461246890612e60565b90600052602060002090601f01602090048101928261248a57600085556124d1565b82601f106124a357805160ff19168380011785556124d1565b828001600101855582156124d1579182015b828111156124d05782518255916020019190600101906124b5565b5b5090506124de91906124e2565b5090565b5b808211156124fb5760008160009055506001016124e3565b5090565b6000604051905090565b600080fd5b600080fd5b60007fffffffff0000000000000000000000000000000000000000000000000000000082169050919050565b61254881612513565b811461255357600080fd5b50565b6000813590506125658161253f565b92915050565b60006020828403121561258157612580612509565b5b600061258f84828501612556565b91505092915050565b60008115159050919050565b6125ad81612598565b82525050565b60006020820190506125c860008301846125a4565b92915050565b6000819050919050565b6125e1816125ce565b82525050565b60006020820190506125fc60008301846125d8565b92915050565b6000819050919050565b61261581612602565b82525050565b6000602082019050612630600083018461260c565b92915050565b61263f816125ce565b811461264a57600080fd5b50565b60008135905061265c81612636565b92915050565b60006020828403121561267857612677612509565b5b60006126868482850161264d565b91505092915050565b600073ffffffffffffffffffffffffffffffffffffffff82169050919050565b60006126ba8261268f565b9050919050565b6126ca816126af565b81146126d557600080fd5b50565b6000813590506126e7816126c1565b92915050565b60006020828403121561270357612702612509565b5b6000612711848285016126d8565b91505092915050565b6000806040838503121561273157612730612509565b5b600061273f8582860161264d565b9250506020612750858286016126d8565b9150509250929050565b61276381612602565b811461276e57600080fd5b50565b6000813590506127808161275a565b92915050565b60006020828403121561279c5761279b612509565b5b60006127aa84828501612771565b91505092915050565b6127bc816126af565b82525050565b600081519050919050565b600082825260208201905092915050565b60005b838110156127fc5780820151818401526020810190506127e1565b8381111561280b576000848401525b50505050565b6000601f19601f8301169050919050565b600061282d826127c2565b61283781856127cd565b93506128478185602086016127de565b61285081612811565b840191505092915050565b600060808201905061287060008301876127b3565b81810360208301526128828186612822565b905081810360408301526128968185612822565b905081810360608301526128aa8184612822565b905095945050505050565b600080fd5b600080fd5b7f4e487b7100000000000000000000000000000000000000000000000000000000600052604160045260246000fd5b6128f782612811565b810181811067ffffffffffffffff82111715612916576129156128bf565b5b80604052505050565b60006129296124ff565b905061293582826128ee565b919050565b600067ffffffffffffffff821115612955576129546128bf565b5b61295e82612811565b9050602081019050919050565b82818337600083830152505050565b600061298d6129888461293a565b61291f565b9050828152602081018484840111156129a9576129a86128ba565b5b6129b484828561296b565b509392505050565b600082601f8301126129d1576129d06128b5565b5b81356129e184826020860161297a565b91505092915050565b600080600060608486031215612a0357612a02612509565b5b600084013567ffffffffffffffff811115612a2157612a2061250e565b5b612a2d868287016129bc565b9350506020612a3e86828701612771565b9250506040612a4f86828701612771565b9150509250925092565b60008060408385031215612a7057612a6f612509565b5b6000612a7e85828601612771565b9250506020612a8f85828601612771565b9150509250929050565b60008060008060808587031215612ab357612ab2612509565b5b6000612ac1878288016126d8565b9450506020612ad287828801612771565b9350506040612ae387828801612771565b9250506060612af487828801612771565b91505092959194509250565b60008060008060808587031215612b1a57612b19612509565b5b600085013567ffffffffffffffff811115612b3857612b3761250e565b5b612b44878288016129bc565b945050602085013567ffffffffffffffff811115612b6557612b6461250e565b5b612b71878288016129bc565b935050604085013567ffffffffffffffff811115612b9257612b9161250e565b5b612b9e878288016129bc565b9250506060612baf878288016126d8565b91505092959194509250565b600060a0820190508181036000830152612bd58188612822565b9050612be4602083018761260c565b612bf1604083018661260c565b612bfe60608301856127b3565b612c0b60808301846127b3565b9695505050505050565b6000612c208261268f565b9050919050565b612c3081612c15565b82525050565b600060a082019050612c4b600083018861260c565b8181036020830152612c5d8187612822565b9050612c6c604083018661260c565b612c79606083018561260c565b612c866080830184612c27565b9695505050505050565b600060a082019050612ca560008301886127b3565b8181036020830152612cb78187612822565b90508181036040830152612ccb8186612822565b90508181036060830152612cdf8185612822565b9050612cee608083018461260c565b9695505050505050565b600080600060608486031215612d1157612d10612509565b5b600084013567ffffffffffffffff811115612d2f57612d2e61250e565b5b612d3b868287016129bc565b935050602084013567ffffffffffffffff811115612d5c57612d5b61250e565b5b612d68868287016129bc565b925050604084013567ffffffffffffffff811115612d8957612d8861250e565b5b612d95868287016129bc565b9150509250925092565b7f416363657373436f6e74726f6c3a2063616e206f6e6c792072656e6f756e636560008201527f20726f6c657320666f722073656c660000000000000000000000000000000000602082015250565b6000612dfb602f836127cd565b9150612e0682612d9f565b604082019050919050565b60006020820190508181036000830152612e2a81612dee565b9050919050565b7f4e487b7100000000000000000000000000000000000000000000000000000000600052602260045260246000fd5b60006002820490506001821680612e7857607f821691505b60208210811415612e8c57612e8b612e31565b5b50919050565b7f52657374726963746564206f6e6c7920746f2053656c6c657200000000000000600082015250565b6000612ec86019836127cd565b9150612ed382612e92565b602082019050919050565b60006020820190508181036000830152612ef781612ebb565b9050919050565b7f50726963652063616e6e6f742062652030000000000000000000000000000000600082015250565b6000612f346011836127cd565b9150612f3f82612efe565b602082019050919050565b60006020820190508181036000830152612f6381612f27565b9050919050565b7f4e487b7100000000000000000000000000000000000000000000000000000000600052601160045260246000fd5b6000612fa482612602565b91507fffffffffffffffffffffffffffffffffffffffffffffffffffffffffffffffff821415612fd757612fd6612f6a565b5b600182019050919050565b600060a082019050612ff7600083018861260c565b81810360208301526130098187612822565b9050613018604083018661260c565b613025606083018561260c565b61303260808301846127b3565b9695505050505050565b7f52657374726963746564206f6e6c7920746f20437573746f6d65720000000000600082015250565b6000613072601b836127cd565b915061307d8261303c565b602082019050919050565b600060208201905081810360008301526130a181613065565b9050919050565b60006130b382612602565b91506130be83612602565b9250817fffffffffffffffffffffffffffffffffffffffffffffffffffffffffffffffff04831182151516156130f7576130f6612f6a565b5b828202905092915050565b7f4e6f7420656e6f756768207175616e7469747900000000000000000000000000600082015250565b60006131386013836127cd565b915061314382613102565b602082019050919050565b600060208201905081810360008301526131678161312b565b9050919050565b600061317982612602565b915061318483612602565b92508282101561319757613196612f6a565b5b828203905092915050565b60008190508160005260206000209050919050565b600081546131c481612e60565b6131ce81866127cd565b945060018216600081146131e957600181146131fb5761322e565b60ff198316865260208601935061322e565b613204856131a2565b60005b8381101561322657815481890152600182019150602081019050613207565b808801955050505b50505092915050565b6000819050919050565b600061325c6132576132528461268f565b613237565b61268f565b9050919050565b600061326e82613241565b9050919050565b600061328082613263565b9050919050565b61329081613275565b82525050565b600060a0820190506132ab600083018861260c565b81810360208301526132bd81876131b7565b90506132cc604083018661260c565b6132d96060830185613287565b6132e660808301846127b3565b9695505050505050565b7f53656c6c65722063616e6e6f742072617465207468656d73656c766573000000600082015250565b6000613326601d836127cd565b9150613331826132f0565b602082019050919050565b6000602082019050818103600083015261335581613319565b9050919050565b7f437573746f6d6572206e6565647320746f20627579207468652070726f64756360008201527f74206265666f7265206c656176696e6720726576696577000000000000000000602082015250565b60006133b86037836127cd565b91506133c38261335c565b604082019050919050565b600060208201905081810360008301526133e7816133ab565b9050919050565b7f526174696e672063616e6e6f74206265206d6f7265207468616e203500000000600082015250565b6000613424601c836127cd565b915061342f826133ee565b602082019050919050565b6000602082019050818103600083015261345381613417565b9050919050565b7f52657374726963746564206f6e6c7920746f2061646d696e7300000000000000600082015250565b60006134906019836127cd565b915061349b8261345a565b602082019050919050565b600060208201905081810360008301526134bf81613483565b9050919050565b7f4e616d652063616e6e6f74206265206e756c6c00000000000000000000000000600082015250565b60006134fc6013836127cd565b9150613507826134c6565b602082019050919050565b6000602082019050818103600083015261352b816134ef565b9050919050565b7f436f6e7461637420656d61696c2063616e6e6f74206265206e756c6c00000000600082015250565b6000613568601c836127cd565b915061357382613532565b602082019050919050565b600060208201905081810360008301526135978161355b565b9050919050565b6000819050919050565b60006135c36135be6135b98461359e565b613237565b612602565b9050919050565b6135d3816135a8565b82525050565b600060a0820190506135ee60008301886127b3565b81810360208301526136008187612822565b905081810360408301526136148186612822565b905081810360608301526136288185612822565b905061363760808301846135ca565b9695505050505050565b7f437573746f6d6572206e616d652063616e6e6f74206265206e756c6c00000000600082015250565b6000613677601c836127cd565b915061368282613641565b602082019050919050565b600060208201905081810360008301526136a68161366a565b9050919050565b7f437573746f6d657220656d61696c2063616e6e6f74206265206e756c6c000000600082015250565b60006136e3601d836127cd565b91506136ee826136ad565b602082019050919050565b60006020820190508181036000830152613712816136d6565b9050919050565b7f437573746f6d657220706f7374616c20616464726573732063616e6e6f74206260008201527f65206e756c6c0000000000000000000000000000000000000000000000000000602082015250565b60006137756026836127cd565b915061378082613719565b604082019050919050565b600060208201905081810360008301526137a481613768565b9050919050565b600081905092915050565b7f416363657373436f6e74726f6c3a206163636f756e7420000000000000000000600082015250565b60006137ec6017836137ab565b91506137f7826137b6565b601782019050919050565b600061380d826127c2565b61381781856137ab565b93506138278185602086016127de565b80840191505092915050565b7f206973206d697373696e6720726f6c6520000000000000000000000000000000600082015250565b60006138696011836137ab565b915061387482613833565b601182019050919050565b600061388a826137df565b91506138968285613802565b91506138a18261385c565b91506138ad8284613802565b91508190509392505050565b600060208201905081810360008301526138d38184612822565b905092915050565b60006138e682612602565b91506138f183612602565b9250827fffffffffffffffffffffffffffffffffffffffffffffffffffffffffffffffff0382111561392657613925612f6a565b5b828201905092915050565b7f4e487b7100000000000000000000000000000000000000000000000000000000600052603260045260246000fd5b600061396b82612602565b9150600082141561397f5761397e612f6a565b5b600182039050919050565b7f537472696e67733a20686578206c656e67746820696e73756666696369656e74600082015250565b60006139c06020836127cd565b91506139cb8261398a565b602082019050919050565b600060208201905081810360008301526139ef816139b3565b905091905056fea2646970667358221220561443a17e4b6d78e79438fc9ccc34c8602e9cac176e43930b84fae5c5be36d064736f6c634300080b0033",
  "immutableReferences": {},
  "source": "// SPDX-License-Identifier: MIT\npragma solidity 0.8.11;\nimport \"./Security.sol\";\n/// @title Farmshop\n/// @author Nishant Bhardwaj\n/// @notice This contract allows admin to register seller, sellers to add produce, and customers to buy produce\n/// @dev The contract inherits from Security.sol which inherits openzepplin AccessContro.sol\ncontract Farmshop is Security {\n    ///@dev tracks the produce ids in the produceList mapping\n    uint256 public produceCount = 0;\n    ///@dev tracks the seller ids in the registeredSellers mapping\n    uint256 public sellerCount = 0;\n    ///@dev tracks the customer ids in the registeredCustomers mapping\n    uint256 public customerCount = 0;\n    ///@dev tracks the order ids in the customerOrders mapping\n    uint256 public orderCount = 0;\n    mapping(uint256 => RegisteredSeller) public registeredSellers;\n    mapping(uint256 => RegisteredCustomers) public registeredCustomers;\n    mapping(uint256 => Produce) public produceList;\n    mapping(address => uint256) public sellerState;\n    mapping(address => uint256) public customerState;\n    mapping(uint256 => customerOrder) public customerOrders;\n\n    struct Produce {\n        uint256 id;\n        string name;\n        uint256 price;\n        uint256 quantity;\n        address payable seller;\n    }\n    struct customerOrder {\n        string produceName;\n        uint256 quantityBought;\n        uint256 pricePaid;\n        address customer;\n        address seller;\n    }\n    struct RegisteredSeller {\n        address sellerAddress;\n        string sellerName;\n        string sellerPostalAddress;\n        string sellerEmail;\n        uint256 rating;\n    }\n\n    struct RegisteredCustomers {\n        address customerAddress;\n        string customerName;\n        string customerPostalAddress;\n        string customerEmail;\n    }\n   /// @notice Emitted when a seller is registered\n   /// @param sellerAddress public account key of the seller.\n   /// @param sellerName of the seller\n   /// @param sellerPostalAddress address of the seller\n   /// @param sellerEmail email of the seller\n   /// @param rating rating\n   /// @dev the seller rating functionality has not been implemented yet\n    event SellerRegistered(\n        address sellerAddress,\n        string sellerName,\n        string sellerPostalAddress,\n        string sellerEmail,\n        uint256 rating\n    );\n   /// @notice Emitted when a customer is registered\n   /// @param customerAddress-public account key for the customer\n   /// @param customerName-name of the customer\n   /// @param customerPostalAddress-postal address of the seller\n   /// @param customerEmail-email of the seller\n    event customerRegistered(\n        address customerAddress,\n        string customerName,\n        string customerPostalAddress,\n        string customerEmail\n    );\n   /// @notice Emitted when a produce is added by the seller\n   /// @param id-id of the produce added\n   /// @param name-name of the produce\n   /// @param price-price of the produce per kg.\n   /// @param quantity-quanity added\n   ///@param seller-public account key for the seller\n    event ProduceAdded(\n        uint256 id,\n        string name,\n        uint256 price,\n        uint256 quantity,\n        address seller\n    );\n    /// @notice Emitted when a produce is puchased by the customer\n   /// @param id of the produce purchased\n   /// @param name of the produce purchased\n   /// @param price paid for the produce\n   ///@param seller-public account key for the seller\n   ///@param customer-public account key for the customer\n    event ProductPurchased(\n        uint256 id,\n        string name,\n        uint256 price,\n        address seller,\n        address customer\n    );\n\n    constructor() {}\n\n    /// @notice Registers a seller by adding to the registeredSellers mapping\n    /// @param _sellerName-Name of the Seller\n    /// @param _postalAddress-postal address of the Seller\n    /// @param _sellerEmail-Email of the seller\n    /// @param sellerAddress-Public account key of the seller\n    /// @dev Function can only be called by admin\n    /// @dev Function grants seller role the seller public address\n    function registerSeller(\n        string memory _sellerName,\n        string memory _postalAddress,\n        string memory _sellerEmail,\n        address sellerAddress\n    ) external onlyAdmin {\n        //check name is valid\n        require(bytes(_sellerName).length > 0, \"Name cannot be null\");\n        //check contact email is valid\n        require(bytes(_sellerEmail).length > 0, \"Contact email cannot be null\");\n        //Create a Seller\n        sellerCount++;\n        registeredSellers[sellerCount] = RegisteredSeller(\n            sellerAddress,\n            _sellerName,\n            _postalAddress,\n            _sellerEmail,\n            0\n        );\n        //Grant seller role\n        addSeller(sellerAddress);\n\n        //Emit Event\n        emit SellerRegistered(\n            msg.sender,\n            _sellerName,\n            _postalAddress,\n            _sellerEmail,\n            0\n        );\n    }\n    /// @notice Registers a customer by adding to the registeredCustomers mapping\n    /// @param _customerName-Name of the Customer\n    /// @param _postalAddress-postal address of the Customer\n    /// @param _customerEmail-Email of the Customer\n    /// @dev msg.sender is added as the customer\n    /// @dev Function can be called by anyone\n    /// @dev Function grants customer role the msg.sender address\n    function registerCustomer(\n        string memory _customerName,\n        string memory _postalAddress,\n        string memory _customerEmail\n    ) external {\n        //check name is valid\n        require(\n            bytes(_customerName).length > 0,\n            \"Customer name cannot be null\"\n        );\n        //check contact email is valid\n        require(\n            bytes(_customerEmail).length > 0,\n            \"Customer email cannot be null\"\n        );\n        //check postal address is valid\n        require(\n            bytes(_postalAddress).length > 0,\n            \"Customer postal address cannot be null\"\n        );\n        //Create Customer\n        customerCount++;\n        registeredCustomers[customerCount] = RegisteredCustomers(\n            msg.sender,\n            _customerName,\n            _postalAddress,\n            _customerEmail\n        );\n        //Assign Customer Role\n        addCustomer(msg.sender);\n\n        //Emit Event\n        emit customerRegistered(\n            msg.sender,\n            _customerName,\n            _postalAddress,\n            _customerEmail\n        );\n    }\n    /// @notice Adds a produce by adding it to the produceList mapping\n    /// @param _name-Name of the Produce\n    /// @param _price-Price of the produce in Wei\n    /// @param _quantity-Quantity available of the produce\n    /// @dev Function can only be called by seller role\n    function addProduce(\n        string memory _name,\n        uint256 _price,\n        uint256 _quantity\n    ) external onlySeller {\n        //check if price is valid\n        require(_price > 0, \"Price cannot be 0\");\n        //check if quantity is valid\n        require(_quantity > 0, \"Price cannot be 0\");\n\n        //increment product counter\n        produceCount++;\n        //add product\n        produceList[produceCount] = Produce(\n            produceCount,\n            _name,\n            _price,\n            _quantity,\n            payable(msg.sender)\n        );\n\n        //emit event\n        emit ProduceAdded(produceCount, _name, _price, _quantity, msg.sender);\n    }\n    /// @notice Purchases the produc by reducing the vaialble quantity in produceList and adding it to the CustomerOrders mapping\n    /// @param _produceID-id of the produce\n    /// @param _quantity-quantity to be purchased\n    /// @dev Function can be called by customer role\n    function purchaseProduce(uint256 _produceID, uint256 _quantity)\n        external\n        payable\n        onlyCustomer\n    {\n        //check if msg.value is enough to buy produce\n        require(msg.value >= produceList[_produceID].price * _quantity);\n        //check if there is enough quanity to buy\n        require(\n            produceList[_produceID].quantity >= _quantity,\n            \"Not enough quantity\"\n        );\n        //check if buyer is not the seller\n        require(produceList[_produceID].seller != msg.sender);\n\n        //add to the customerItems mappings\n        orderCount++;\n        customerOrders[orderCount] = customerOrder(\n            produceList[_produceID].name,\n            _quantity,\n            produceList[_produceID].price * _quantity,\n            msg.sender,\n            produceList[_produceID].seller\n        );\n\n        //reduce the quantity available\n        produceList[_produceID].quantity =\n            produceList[_produceID].quantity -\n            _quantity;\n\n        //transfer ether to seller\n        produceList[_produceID].seller.transfer(msg.value);\n\n        //emit event\n        emit ProductPurchased(\n            _produceID,\n            produceList[_produceID].name,\n            produceList[_produceID].price,\n            produceList[_produceID].seller,\n            msg.sender\n        );\n    }\n    /// @notice Gives rating to the seller\n    /// @notice This fucntion is not currently being used\n    /// @dev Function can only be called by customer role\n    function giveSellerRating(\n        address _sellerAddress,\n        uint256 _rating,\n        uint256 _produceID,\n        uint256 _orderID\n    ) external onlyCustomer returns (uint256) {\n        //check if the address giving rating is not the seller\n        require(\n            produceList[_produceID].seller != msg.sender,\n            \"Seller cannot rate themselves\"\n        );\n        //check if the customer has bought the product from the seller\n        require(\n            customerOrders[_orderID].seller == _sellerAddress,\n            \"Customer needs to buy the product before leaving review\"\n        );\n\n        //check if rating is not greater than 5\n        require(_rating <= 5, \"Rating cannot be more than 5\");\n\n        //add rating\n        registeredSellers[sellerCount].rating = _rating;\n\n        //return rating\n        return registeredSellers[sellerCount].rating;\n    }\n}\n",
  "sourcePath": "/mnt/c/Users/nbhardwaj/Documents/Blockchain/ConsensysAcademy/blockchain-developer-bootcamp-final-project/contracts/Farmshop.sol",
  "compiler": {
    "name": "solc",
    "version": "0.8.11+commit.d7f03943.Emscripten.clang"
  },
  "schemaVersion": "3.4.4",
  "updatedAt": "2022-01-10T20:18:20.803Z",
  "networkType": "ethereum",
  "devdoc": {
    "author": "Nishant Bhardwaj",
    "details": "The contract inherits from Security.sol which inherits openzepplin AccessContro.sol",
    "events": {
      "ProduceAdded(uint256,string,uint256,uint256,address)": {
        "params": {
          "id": "-id of the produce added",
          "name": "-name of the produce",
          "price": "-price of the produce per kg.",
          "quantity": "-quanity added",
          "seller": "-public account key for the seller"
        }
      },
      "ProductPurchased(uint256,string,uint256,address,address)": {
        "params": {
          "customer": "-public account key for the customer",
          "id": "of the produce purchased",
          "name": "of the produce purchased",
          "price": "paid for the produce",
          "seller": "-public account key for the seller"
        }
      },
      "SellerRegistered(address,string,string,string,uint256)": {
        "details": "the seller rating functionality has not been implemented yet",
        "params": {
          "rating": "rating",
          "sellerAddress": "public account key of the seller.",
          "sellerEmail": "email of the seller",
          "sellerName": "of the seller",
          "sellerPostalAddress": "address of the seller"
        }
      },
      "customerRegistered(address,string,string,string)": {
        "params": {
          "customerAddress": "-public account key for the customer",
          "customerEmail": "-email of the seller",
          "customerName": "-name of the customer",
          "customerPostalAddress": "-postal address of the seller"
        }
      }
    },
    "kind": "dev",
    "methods": {
      "addCustomer(address)": {
        "details": "makes a call to the inherited function _grantRole in AccessControl.sol_grantRole does not require to be called by admins",
        "params": {
          "account": "which is the public address"
        }
      },
      "addProduce(string,uint256,uint256)": {
        "details": "Function can only be called by seller role",
        "params": {
          "_name": "-Name of the Produce",
          "_price": "-Price of the produce in Wei",
          "_quantity": "-Quantity available of the produce"
        }
      },
      "addSeller(address)": {
        "details": "makes a call to the inherited function grantRole in AccessControl.solcan only be called by admin",
        "params": {
          "account": "which is the public address"
        }
      },
      "getRoleAdmin(bytes32)": {
        "details": "Returns the admin role that controls `role`. See {grantRole} and {revokeRole}. To change a role's admin, use {_setRoleAdmin}."
      },
      "giveSellerRating(address,uint256,uint256,uint256)": {
        "details": "Function can only be called by customer role"
      },
      "grantRole(bytes32,address)": {
        "details": "Grants `role` to `account`. If `account` had not been already granted `role`, emits a {RoleGranted} event. Requirements: - the caller must have ``role``'s admin role."
      },
      "hasRole(bytes32,address)": {
        "details": "Returns `true` if `account` has been granted `role`."
      },
      "isAdmin(address)": {
        "details": "makes a call to the inherited function hasRole in AccessControl.sol",
        "params": {
          "account": "which is the public address"
        },
        "returns": {
          "_0": "true or false"
        }
      },
      "isCustomer(address)": {
        "details": "makes a call to the inherited function hasRole in AccessControl.sol",
        "params": {
          "account": "which is the public address"
        },
        "returns": {
          "_0": "true or false"
        }
      },
      "isSeller(address)": {
        "details": "makes a call to the inherited function hasRole in AccessControl.sol",
        "params": {
          "account": "which is the public address"
        },
        "returns": {
          "_0": "true or false"
        }
      },
      "purchaseProduce(uint256,uint256)": {
        "details": "Function can be called by customer role",
        "params": {
          "_produceID": "-id of the produce",
          "_quantity": "-quantity to be purchased"
        }
      },
      "registerCustomer(string,string,string)": {
        "details": "msg.sender is added as the customerFunction can be called by anyoneFunction grants customer role the msg.sender address",
        "params": {
          "_customerEmail": "-Email of the Customer",
          "_customerName": "-Name of the Customer",
          "_postalAddress": "-postal address of the Customer"
        }
      },
      "registerSeller(string,string,string,address)": {
        "details": "Function can only be called by adminFunction grants seller role the seller public address",
        "params": {
          "_postalAddress": "-postal address of the Seller",
          "_sellerEmail": "-Email of the seller",
          "_sellerName": "-Name of the Seller",
          "sellerAddress": "-Public account key of the seller"
        }
      },
      "removeCustomer(address)": {
        "details": "makes a call to the inherited function revokeRole in AccessControl.solcan only be called by admin",
        "params": {
          "account": "which is the public address"
        }
      },
      "removeSeller(address)": {
        "details": "makes a call to the inherited function revokeRole in AccessControl.solcan only be called by admin",
        "params": {
          "account": "which is the public address"
        }
      },
      "renounceRole(bytes32,address)": {
        "details": "Revokes `role` from the calling account. Roles are often managed via {grantRole} and {revokeRole}: this function's purpose is to provide a mechanism for accounts to lose their privileges if they are compromised (such as when a trusted device is misplaced). If the calling account had been revoked `role`, emits a {RoleRevoked} event. Requirements: - the caller must be `account`."
      },
      "revokeRole(bytes32,address)": {
        "details": "Revokes `role` from `account`. If `account` had been granted `role`, emits a {RoleRevoked} event. Requirements: - the caller must have ``role``'s admin role."
      },
      "supportsInterface(bytes4)": {
        "details": "See {IERC165-supportsInterface}."
      }
    },
    "stateVariables": {
      "customerCount": {
        "details": "tracks the customer ids in the registeredCustomers mapping"
      },
      "orderCount": {
        "details": "tracks the order ids in the customerOrders mapping"
      },
      "produceCount": {
        "details": "tracks the produce ids in the produceList mapping"
      },
      "sellerCount": {
        "details": "tracks the seller ids in the registeredSellers mapping"
      }
    },
    "title": "Farmshop",
    "version": 1
  },
  "userdoc": {
    "events": {
      "ProduceAdded(uint256,string,uint256,uint256,address)": {
        "notice": "Emitted when a produce is added by the seller"
      },
      "ProductPurchased(uint256,string,uint256,address,address)": {
        "notice": "Emitted when a produce is puchased by the customer"
      },
      "SellerRegistered(address,string,string,string,uint256)": {
        "notice": "Emitted when a seller is registered"
      },
      "customerRegistered(address,string,string,string)": {
        "notice": "Emitted when a customer is registered"
      }
    },
    "kind": "user",
    "methods": {
      "addCustomer(address)": {
        "notice": "Grants an account the Customer Role"
      },
      "addProduce(string,uint256,uint256)": {
        "notice": "Adds a produce by adding it to the produceList mapping"
      },
      "addSeller(address)": {
        "notice": "Grants an account the Seller Role"
      },
      "giveSellerRating(address,uint256,uint256,uint256)": {
        "notice": "Gives rating to the sellerThis fucntion is not currently being used"
      },
      "isAdmin(address)": {
        "notice": "Checks if an account is an Admin"
      },
      "isCustomer(address)": {
        "notice": "Checks if an account is a Customer"
      },
      "isSeller(address)": {
        "notice": "Checks if an account is a Seller"
      },
      "purchaseProduce(uint256,uint256)": {
        "notice": "Purchases the produc by reducing the vaialble quantity in produceList and adding it to the CustomerOrders mapping"
      },
      "registerCustomer(string,string,string)": {
        "notice": "Registers a customer by adding to the registeredCustomers mapping"
      },
      "registerSeller(string,string,string,address)": {
        "notice": "Registers a seller by adding to the registeredSellers mapping"
      },
      "removeCustomer(address)": {
        "notice": "Revokes Customer role from an account"
      },
      "removeSeller(address)": {
        "notice": "Revokes Seller role from an account"
      }
    },
    "notice": "This contract allows admin to register seller, sellers to add produce, and customers to buy produce",
    "version": 1
  }
}