{
  "contractName": "Security",
  "abi": [
    {
      "inputs": [],
      "stateMutability": "nonpayable",
      "type": "constructor"
    },
    {
      "anonymous": false,
      "inputs": [
        {
          "indexed": true,
          "internalType": "bytes32",
          "name": "role",
          "type": "bytes32"
        },
        {
          "indexed": true,
          "internalType": "bytes32",
          "name": "previousAdminRole",
          "type": "bytes32"
        },
        {
          "indexed": true,
          "internalType": "bytes32",
          "name": "newAdminRole",
          "type": "bytes32"
        }
      ],
      "name": "RoleAdminChanged",
      "type": "event"
    },
    {
      "anonymous": false,
      "inputs": [
        {
          "indexed": true,
          "internalType": "bytes32",
          "name": "role",
          "type": "bytes32"
        },
        {
          "indexed": true,
          "internalType": "address",
          "name": "account",
          "type": "address"
        },
        {
          "indexed": true,
          "internalType": "address",
          "name": "sender",
          "type": "address"
        }
      ],
      "name": "RoleGranted",
      "type": "event"
    },
    {
      "anonymous": false,
      "inputs": [
        {
          "indexed": true,
          "internalType": "bytes32",
          "name": "role",
          "type": "bytes32"
        },
        {
          "indexed": true,
          "internalType": "address",
          "name": "account",
          "type": "address"
        },
        {
          "indexed": true,
          "internalType": "address",
          "name": "sender",
          "type": "address"
        }
      ],
      "name": "RoleRevoked",
      "type": "event"
    },
    {
      "inputs": [],
      "name": "CUSTOMER_ROLE",
      "outputs": [
        {
          "internalType": "bytes32",
          "name": "",
          "type": "bytes32"
        }
      ],
      "stateMutability": "view",
      "type": "function",
      "constant": true
    },
    {
      "inputs": [],
      "name": "DEFAULT_ADMIN_ROLE",
      "outputs": [
        {
          "internalType": "bytes32",
          "name": "",
          "type": "bytes32"
        }
      ],
      "stateMutability": "view",
      "type": "function",
      "constant": true
    },
    {
      "inputs": [],
      "name": "SELLER_ROLE",
      "outputs": [
        {
          "internalType": "bytes32",
          "name": "",
          "type": "bytes32"
        }
      ],
      "stateMutability": "view",
      "type": "function",
      "constant": true
    },
    {
      "inputs": [
        {
          "internalType": "bytes32",
          "name": "role",
          "type": "bytes32"
        }
      ],
      "name": "getRoleAdmin",
      "outputs": [
        {
          "internalType": "bytes32",
          "name": "",
          "type": "bytes32"
        }
      ],
      "stateMutability": "view",
      "type": "function",
      "constant": true
    },
    {
      "inputs": [
        {
          "internalType": "bytes32",
          "name": "role",
          "type": "bytes32"
        },
        {
          "internalType": "address",
          "name": "account",
          "type": "address"
        }
      ],
      "name": "grantRole",
      "outputs": [],
      "stateMutability": "nonpayable",
      "type": "function"
    },
    {
      "inputs": [
        {
          "internalType": "bytes32",
          "name": "role",
          "type": "bytes32"
        },
        {
          "internalType": "address",
          "name": "account",
          "type": "address"
        }
      ],
      "name": "hasRole",
      "outputs": [
        {
          "internalType": "bool",
          "name": "",
          "type": "bool"
        }
      ],
      "stateMutability": "view",
      "type": "function",
      "constant": true
    },
    {
      "inputs": [
        {
          "internalType": "bytes32",
          "name": "role",
          "type": "bytes32"
        },
        {
          "internalType": "address",
          "name": "account",
          "type": "address"
        }
      ],
      "name": "renounceRole",
      "outputs": [],
      "stateMutability": "nonpayable",
      "type": "function"
    },
    {
      "inputs": [
        {
          "internalType": "bytes32",
          "name": "role",
          "type": "bytes32"
        },
        {
          "internalType": "address",
          "name": "account",
          "type": "address"
        }
      ],
      "name": "revokeRole",
      "outputs": [],
      "stateMutability": "nonpayable",
      "type": "function"
    },
    {
      "inputs": [
        {
          "internalType": "bytes4",
          "name": "interfaceId",
          "type": "bytes4"
        }
      ],
      "name": "supportsInterface",
      "outputs": [
        {
          "internalType": "bool",
          "name": "",
          "type": "bool"
        }
      ],
      "stateMutability": "view",
      "type": "function",
      "constant": true
    },
    {
      "inputs": [
        {
          "internalType": "address",
          "name": "account",
          "type": "address"
        }
      ],
      "name": "isAdmin",
      "outputs": [
        {
          "internalType": "bool",
          "name": "",
          "type": "bool"
        }
      ],
      "stateMutability": "view",
      "type": "function",
      "constant": true
    },
    {
      "inputs": [
        {
          "internalType": "address",
          "name": "account",
          "type": "address"
        }
      ],
      "name": "isSeller",
      "outputs": [
        {
          "internalType": "bool",
          "name": "",
          "type": "bool"
        }
      ],
      "stateMutability": "view",
      "type": "function",
      "constant": true
    },
    {
      "inputs": [
        {
          "internalType": "address",
          "name": "account",
          "type": "address"
        }
      ],
      "name": "isCustomer",
      "outputs": [
        {
          "internalType": "bool",
          "name": "",
          "type": "bool"
        }
      ],
      "stateMutability": "view",
      "type": "function",
      "constant": true
    },
    {
      "inputs": [
        {
          "internalType": "address",
          "name": "account",
          "type": "address"
        }
      ],
      "name": "addSeller",
      "outputs": [],
      "stateMutability": "nonpayable",
      "type": "function"
    },
    {
      "inputs": [
        {
          "internalType": "address",
          "name": "account",
          "type": "address"
        }
      ],
      "name": "removeSeller",
      "outputs": [],
      "stateMutability": "nonpayable",
      "type": "function"
    },
    {
      "inputs": [
        {
          "internalType": "address",
          "name": "account",
          "type": "address"
        }
      ],
      "name": "addCustomer",
      "outputs": [],
      "stateMutability": "nonpayable",
      "type": "function"
    },
    {
      "inputs": [
        {
          "internalType": "address",
          "name": "account",
          "type": "address"
        }
      ],
      "name": "removeCustomer",
      "outputs": [],
      "stateMutability": "nonpayable",
      "type": "function"
    }
  ],
  "bytecode": "0x608060405234801561001057600080fd5b506100246000801b3361002960201b60201c565b61019b565b610039828261003d60201b60201c565b5050565b61004d828261012960201b60201c565b61012557600160008084815260200190815260200160002060000160008373ffffffffffffffffffffffffffffffffffffffff1673ffffffffffffffffffffffffffffffffffffffff16815260200190815260200160002060006101000a81548160ff0219169083151502179055506100ca61019360201b60201c565b73ffffffffffffffffffffffffffffffffffffffff168173ffffffffffffffffffffffffffffffffffffffff16837f2f8788117e7eff1d82e926ec794901d17c78024a50270940304540a733656f0d60405160405180910390a45b5050565b600080600084815260200190815260200160002060000160008373ffffffffffffffffffffffffffffffffffffffff1673ffffffffffffffffffffffffffffffffffffffff16815260200190815260200160002060009054906101000a900460ff16905092915050565b600033905090565b611370806101aa6000396000f3fe608060405234801561001057600080fd5b50600436106101005760003560e01c80638eb06ccf11610097578063d547741f11610066578063d547741f146102bd578063d93fabfa146102d9578063dbe4613d146102f5578063ee95feaf1461031357610100565b80638eb06ccf1461023757806391d1485414610253578063a217fddf14610283578063ad973d74146102a157610100565b806328fd5e83116100d357806328fd5e83146101b35780632f2ff15d146101e357806336568abe146101ff5780637cb9cf541461021b57610100565b806301ffc9a714610105578063204d792314610135578063248a9ca31461015357806324d7806c14610183575b600080fd5b61011f600480360381019061011a9190610cdb565b610343565b60405161012c9190610d23565b60405180910390f35b61013d6103bd565b60405161014a9190610d57565b60405180910390f35b61016d60048036038101906101689190610d9e565b6103e1565b60405161017a9190610d57565b60405180910390f35b61019d60048036038101906101989190610e29565b610400565b6040516101aa9190610d23565b60405180910390f35b6101cd60048036038101906101c89190610e29565b610416565b6040516101da9190610d23565b60405180910390f35b6101fd60048036038101906101f89190610e56565b610449565b005b61021960048036038101906102149190610e56565b610472565b005b61023560048036038101906102309190610e29565b6104f5565b005b610251600480360381019061024c9190610e29565b61056a565b005b61026d60048036038101906102689190610e56565b6105df565b60405161027a9190610d23565b60405180910390f35b61028b610649565b6040516102989190610d57565b60405180910390f35b6102bb60048036038101906102b69190610e29565b610650565b005b6102d760048036038101906102d29190610e56565b61067d565b005b6102f360048036038101906102ee9190610e29565b6106a6565b005b6102fd61071b565b60405161030a9190610d57565b60405180910390f35b61032d60048036038101906103289190610e29565b61073f565b60405161033a9190610d23565b60405180910390f35b60007f7965db0b000000000000000000000000000000000000000000000000000000007bffffffffffffffffffffffffffffffffffffffffffffffffffffffff1916827bffffffffffffffffffffffffffffffffffffffffffffffffffffffff191614806103b657506103b582610772565b5b9050919050565b7fb2ebd6afe8ba024614156b3c81d408e68cbe372754a5503c8b7f07bbace9f6ba81565b6000806000838152602001908152602001600020600101549050919050565b600061040f6000801b836105df565b9050919050565b60006104427fb2ebd6afe8ba024614156b3c81d408e68cbe372754a5503c8b7f07bbace9f6ba836105df565b9050919050565b610452826103e1565b6104638161045e6107dc565b6107e4565b61046d8383610881565b505050565b61047a6107dc565b73ffffffffffffffffffffffffffffffffffffffff168173ffffffffffffffffffffffffffffffffffffffff16146104e7576040517f08c379a00000000000000000000000000000000000000000000000000000000081526004016104de90610f19565b60405180910390fd5b6104f18282610961565b5050565b6104fe33610400565b61053d576040517f08c379a000000000000000000000000000000000000000000000000000000000815260040161053490610f85565b60405180910390fd5b6105677fab727555e1a579ca2f00d4f6682bede92e5e46e287e8b1a6f243044c1ec5b7ac8261067d565b50565b61057333610400565b6105b2576040517f08c379a00000000000000000000000000000000000000000000000000000000081526004016105a990610f85565b60405180910390fd5b6105dc7fb2ebd6afe8ba024614156b3c81d408e68cbe372754a5503c8b7f07bbace9f6ba8261067d565b50565b600080600084815260200190815260200160002060000160008373ffffffffffffffffffffffffffffffffffffffff1673ffffffffffffffffffffffffffffffffffffffff16815260200190815260200160002060009054906101000a900460ff16905092915050565b6000801b81565b61067a7fb2ebd6afe8ba024614156b3c81d408e68cbe372754a5503c8b7f07bbace9f6ba82610881565b50565b610686826103e1565b610697816106926107dc565b6107e4565b6106a18383610961565b505050565b6106af33610400565b6106ee576040517f08c379a00000000000000000000000000000000000000000000000000000000081526004016106e590610f85565b60405180910390fd5b6107187fab727555e1a579ca2f00d4f6682bede92e5e46e287e8b1a6f243044c1ec5b7ac82610449565b50565b7fab727555e1a579ca2f00d4f6682bede92e5e46e287e8b1a6f243044c1ec5b7ac81565b600061076b7fab727555e1a579ca2f00d4f6682bede92e5e46e287e8b1a6f243044c1ec5b7ac836105df565b9050919050565b60007f01ffc9a7000000000000000000000000000000000000000000000000000000007bffffffffffffffffffffffffffffffffffffffffffffffffffffffff1916827bffffffffffffffffffffffffffffffffffffffffffffffffffffffff1916149050919050565b600033905090565b6107ee82826105df565b61087d576108138173ffffffffffffffffffffffffffffffffffffffff166014610a42565b6108218360001c6020610a42565b6040516020016108329291906110b7565b6040516020818303038152906040526040517f08c379a0000000000000000000000000000000000000000000000000000000008152600401610874919061113b565b60405180910390fd5b5050565b61088b82826105df565b61095d57600160008084815260200190815260200160002060000160008373ffffffffffffffffffffffffffffffffffffffff1673ffffffffffffffffffffffffffffffffffffffff16815260200190815260200160002060006101000a81548160ff0219169083151502179055506109026107dc565b73ffffffffffffffffffffffffffffffffffffffff168173ffffffffffffffffffffffffffffffffffffffff16837f2f8788117e7eff1d82e926ec794901d17c78024a50270940304540a733656f0d60405160405180910390a45b5050565b61096b82826105df565b15610a3e57600080600084815260200190815260200160002060000160008373ffffffffffffffffffffffffffffffffffffffff1673ffffffffffffffffffffffffffffffffffffffff16815260200190815260200160002060006101000a81548160ff0219169083151502179055506109e36107dc565b73ffffffffffffffffffffffffffffffffffffffff168173ffffffffffffffffffffffffffffffffffffffff16837ff6391f5c32d9c69d2a47ea670b442974b53935d1edc7fd64eb21e047a839171b60405160405180910390a45b5050565b606060006002836002610a559190611196565b610a5f91906111f0565b67ffffffffffffffff811115610a7857610a77611246565b5b6040519080825280601f01601f191660200182016040528015610aaa5781602001600182028036833780820191505090505b5090507f300000000000000000000000000000000000000000000000000000000000000081600081518110610ae257610ae1611275565b5b60200101907effffffffffffffffffffffffffffffffffffffffffffffffffffffffffffff1916908160001a9053507f780000000000000000000000000000000000000000000000000000000000000081600181518110610b4657610b45611275565b5b60200101907effffffffffffffffffffffffffffffffffffffffffffffffffffffffffffff1916908160001a90535060006001846002610b869190611196565b610b9091906111f0565b90505b6001811115610c30577f3031323334353637383961626364656600000000000000000000000000000000600f861660108110610bd257610bd1611275565b5b1a60f81b828281518110610be957610be8611275565b5b60200101907effffffffffffffffffffffffffffffffffffffffffffffffffffffffffffff1916908160001a905350600485901c945080610c29906112a4565b9050610b93565b5060008414610c74576040517f08c379a0000000000000000000000000000000000000000000000000000000008152600401610c6b9061131a565b60405180910390fd5b8091505092915050565b600080fd5b60007fffffffff0000000000000000000000000000000000000000000000000000000082169050919050565b610cb881610c83565b8114610cc357600080fd5b50565b600081359050610cd581610caf565b92915050565b600060208284031215610cf157610cf0610c7e565b5b6000610cff84828501610cc6565b91505092915050565b60008115159050919050565b610d1d81610d08565b82525050565b6000602082019050610d386000830184610d14565b92915050565b6000819050919050565b610d5181610d3e565b82525050565b6000602082019050610d6c6000830184610d48565b92915050565b610d7b81610d3e565b8114610d8657600080fd5b50565b600081359050610d9881610d72565b92915050565b600060208284031215610db457610db3610c7e565b5b6000610dc284828501610d89565b91505092915050565b600073ffffffffffffffffffffffffffffffffffffffff82169050919050565b6000610df682610dcb565b9050919050565b610e0681610deb565b8114610e1157600080fd5b50565b600081359050610e2381610dfd565b92915050565b600060208284031215610e3f57610e3e610c7e565b5b6000610e4d84828501610e14565b91505092915050565b60008060408385031215610e6d57610e6c610c7e565b5b6000610e7b85828601610d89565b9250506020610e8c85828601610e14565b9150509250929050565b600082825260208201905092915050565b7f416363657373436f6e74726f6c3a2063616e206f6e6c792072656e6f756e636560008201527f20726f6c657320666f722073656c660000000000000000000000000000000000602082015250565b6000610f03602f83610e96565b9150610f0e82610ea7565b604082019050919050565b60006020820190508181036000830152610f3281610ef6565b9050919050565b7f52657374726963746564206f6e6c7920746f2061646d696e7300000000000000600082015250565b6000610f6f601983610e96565b9150610f7a82610f39565b602082019050919050565b60006020820190508181036000830152610f9e81610f62565b9050919050565b600081905092915050565b7f416363657373436f6e74726f6c3a206163636f756e7420000000000000000000600082015250565b6000610fe6601783610fa5565b9150610ff182610fb0565b601782019050919050565b600081519050919050565b60005b8381101561102557808201518184015260208101905061100a565b83811115611034576000848401525b50505050565b600061104582610ffc565b61104f8185610fa5565b935061105f818560208601611007565b80840191505092915050565b7f206973206d697373696e6720726f6c6520000000000000000000000000000000600082015250565b60006110a1601183610fa5565b91506110ac8261106b565b601182019050919050565b60006110c282610fd9565b91506110ce828561103a565b91506110d982611094565b91506110e5828461103a565b91508190509392505050565b6000601f19601f8301169050919050565b600061110d82610ffc565b6111178185610e96565b9350611127818560208601611007565b611130816110f1565b840191505092915050565b600060208201905081810360008301526111558184611102565b905092915050565b6000819050919050565b7f4e487b7100000000000000000000000000000000000000000000000000000000600052601160045260246000fd5b60006111a18261115d565b91506111ac8361115d565b9250817fffffffffffffffffffffffffffffffffffffffffffffffffffffffffffffffff04831182151516156111e5576111e4611167565b5b828202905092915050565b60006111fb8261115d565b91506112068361115d565b9250827fffffffffffffffffffffffffffffffffffffffffffffffffffffffffffffffff0382111561123b5761123a611167565b5b828201905092915050565b7f4e487b7100000000000000000000000000000000000000000000000000000000600052604160045260246000fd5b7f4e487b7100000000000000000000000000000000000000000000000000000000600052603260045260246000fd5b60006112af8261115d565b915060008214156112c3576112c2611167565b5b600182039050919050565b7f537472696e67733a20686578206c656e67746820696e73756666696369656e74600082015250565b6000611304602083610e96565b915061130f826112ce565b602082019050919050565b60006020820190508181036000830152611333816112f7565b905091905056fea264697066735822122077ccd95a6288eacc214a0a7dde529e99f9e904ccec263a5833c31fbf8d71610964736f6c634300080b0033",
  "immutableReferences": {},
  "source": "// SPDX-License-Identifier: MIT\npragma solidity 0.8.11;\nimport \"@openzeppelin/contracts/access/AccessControl.sol\";\n/// @title Security\n/// @author Nishant Bhardwaj\n/// @notice This contract allows to implement the openzepplin access control contract \n/// @dev The contract inherits openzepplin AccessControl.sol\ncontract Security is AccessControl {\n    /// @dev Define a Seller Role\n    bytes32 public constant SELLER_ROLE = keccak256(\"Seller\");\n    /// @dev Define a Customer Role\n    bytes32 public constant CUSTOMER_ROLE = keccak256(\"Customer\");\n    \n    /// @notice Constrcutor Assigns Admin role to the deployer of the contract\n    /// @dev DEFAULT_ADMIN_ROLE is role inherited from AccessControl.sol\n    constructor() {\n        _setupRole(DEFAULT_ADMIN_ROLE, msg.sender);\n    }\n\n    modifier onlyAdmin() {\n        require(isAdmin(msg.sender), \"Restricted only to admins\");\n        _;\n    }\n    modifier onlySeller() {\n        require(isSeller(msg.sender), \"Restricted only to Seller\");\n        _;\n    }\n    modifier onlyCustomer() {\n        require(isCustomer(msg.sender), \"Restricted only to Customer\");\n        _;\n    }\n    /// @notice Checks if an account is an Admin\n    /// @param account which is the public address\n    /// @dev makes a call to the inherited function hasRole in AccessControl.sol\n    /// @return true or false\n    function isAdmin(address account) public view virtual returns (bool) {\n        return hasRole(DEFAULT_ADMIN_ROLE, account);\n    }\n    /// @notice Checks if an account is a Seller\n    /// @param account which is the public address\n    /// @dev makes a call to the inherited function hasRole in AccessControl.sol\n    /// @return true or false\n    function isSeller(address account) public view virtual returns (bool) {\n        return hasRole(SELLER_ROLE, account);\n    }\n    /// @notice Checks if an account is a Customer\n    /// @param account which is the public address\n    /// @dev makes a call to the inherited function hasRole in AccessControl.sol\n    /// @return true or false\n    function isCustomer(address account) public view virtual returns (bool) {\n        return hasRole(CUSTOMER_ROLE, account);\n    }\n    /// @notice Grants an account the Seller Role\n    /// @param account which is the public address\n    /// @dev makes a call to the inherited function grantRole in AccessControl.sol\n    /// @dev can only be called by admin\n    function addSeller(address account) public virtual onlyAdmin {\n        grantRole(SELLER_ROLE, account);\n    }\n    /// @notice Revokes Seller role from an account\n    /// @param account which is the public address\n    /// @dev makes a call to the inherited function revokeRole in AccessControl.sol\n    /// @dev can only be called by admin\n    function removeSeller(address account) public virtual onlyAdmin {\n        revokeRole(SELLER_ROLE, account);\n    }\n    /// @notice Grants an account the Customer Role\n    /// @param account which is the public address\n    /// @dev makes a call to the inherited function _grantRole in AccessControl.sol\n    /// @dev _grantRole does not require to be called by admins\n    function addCustomer(address account) public virtual {\n        _grantRole(CUSTOMER_ROLE, account);\n    }\n    /// @notice Revokes Customer role from an account\n    /// @param account which is the public address\n    /// @dev makes a call to the inherited function revokeRole in AccessControl.sol\n    /// @dev can only be called by admin\n    function removeCustomer(address account) public virtual onlyAdmin {\n        revokeRole(CUSTOMER_ROLE, account);\n    }\n\n}\n",
  "sourcePath": "/mnt/c/Users/nbhardwaj/Documents/Blockchain/ConsensysAcademy/blockchain-developer-bootcamp-final-project/contracts/Security.sol",
  "compiler": {
    "name": "solc",
    "version": "0.8.11+commit.d7f03943.Emscripten.clang"
  },
  "schemaVersion": "3.4.4",
  "updatedAt": "2022-01-11T15:17:34.426Z",
  "networkType": "ethereum",
  "devdoc": {
    "author": "Nishant Bhardwaj",
    "details": "The contract inherits openzepplin AccessControl.sol",
    "kind": "dev",
    "methods": {
      "addCustomer(address)": {
        "details": "makes a call to the inherited function _grantRole in AccessControl.sol_grantRole does not require to be called by admins",
        "params": {
          "account": "which is the public address"
        }
      },
      "addSeller(address)": {
        "details": "makes a call to the inherited function grantRole in AccessControl.solcan only be called by admin",
        "params": {
          "account": "which is the public address"
        }
      },
      "constructor": {
        "details": "DEFAULT_ADMIN_ROLE is role inherited from AccessControl.sol"
      },
      "getRoleAdmin(bytes32)": {
        "details": "Returns the admin role that controls `role`. See {grantRole} and {revokeRole}. To change a role's admin, use {_setRoleAdmin}."
      },
      "grantRole(bytes32,address)": {
        "details": "Grants `role` to `account`. If `account` had not been already granted `role`, emits a {RoleGranted} event. Requirements: - the caller must have ``role``'s admin role."
      },
      "hasRole(bytes32,address)": {
        "details": "Returns `true` if `account` has been granted `role`."
      },
      "isAdmin(address)": {
        "details": "makes a call to the inherited function hasRole in AccessControl.sol",
        "params": {
          "account": "which is the public address"
        },
        "returns": {
          "_0": "true or false"
        }
      },
      "isCustomer(address)": {
        "details": "makes a call to the inherited function hasRole in AccessControl.sol",
        "params": {
          "account": "which is the public address"
        },
        "returns": {
          "_0": "true or false"
        }
      },
      "isSeller(address)": {
        "details": "makes a call to the inherited function hasRole in AccessControl.sol",
        "params": {
          "account": "which is the public address"
        },
        "returns": {
          "_0": "true or false"
        }
      },
      "removeCustomer(address)": {
        "details": "makes a call to the inherited function revokeRole in AccessControl.solcan only be called by admin",
        "params": {
          "account": "which is the public address"
        }
      },
      "removeSeller(address)": {
        "details": "makes a call to the inherited function revokeRole in AccessControl.solcan only be called by admin",
        "params": {
          "account": "which is the public address"
        }
      },
      "renounceRole(bytes32,address)": {
        "details": "Revokes `role` from the calling account. Roles are often managed via {grantRole} and {revokeRole}: this function's purpose is to provide a mechanism for accounts to lose their privileges if they are compromised (such as when a trusted device is misplaced). If the calling account had been revoked `role`, emits a {RoleRevoked} event. Requirements: - the caller must be `account`."
      },
      "revokeRole(bytes32,address)": {
        "details": "Revokes `role` from `account`. If `account` had been granted `role`, emits a {RoleRevoked} event. Requirements: - the caller must have ``role``'s admin role."
      },
      "supportsInterface(bytes4)": {
        "details": "See {IERC165-supportsInterface}."
      }
    },
    "stateVariables": {
      "CUSTOMER_ROLE": {
        "details": "Define a Customer Role"
      },
      "SELLER_ROLE": {
        "details": "Define a Seller Role"
      }
    },
    "title": "Security",
    "version": 1
  },
  "userdoc": {
    "kind": "user",
    "methods": {
      "addCustomer(address)": {
        "notice": "Grants an account the Customer Role"
      },
      "addSeller(address)": {
        "notice": "Grants an account the Seller Role"
      },
      "constructor": {
        "notice": "Constrcutor Assigns Admin role to the deployer of the contract"
      },
      "isAdmin(address)": {
        "notice": "Checks if an account is an Admin"
      },
      "isCustomer(address)": {
        "notice": "Checks if an account is a Customer"
      },
      "isSeller(address)": {
        "notice": "Checks if an account is a Seller"
      },
      "removeCustomer(address)": {
        "notice": "Revokes Customer role from an account"
      },
      "removeSeller(address)": {
        "notice": "Revokes Seller role from an account"
      }
    },
    "notice": "This contract allows to implement the openzepplin access control contract ",
    "version": 1
  }
}